:020000040800F2
:1000000000A00020B9020008A1360008A5360008AB
:10001000A9360008AD360008B1360008000000001F
:10002000000000000000000000000000B5360008DD
:10003000B936000800000000BD360008C1360008CF
:10004000712D0008712D0008712D0008712D000818
:10005000712D0008712D0008712D0008712D000808
:10006000712D0008712D0008712D0008712D0008F8
:10007000712D0008712D0008712D0008712D0008E8
:10008000712D0008712D0008712D0008712D0008D8
:10009000712D0008712D0008712D0008712D0008C8
:1000A000712D0008712D0008712D0008712D0008B8
:1000B000712D0008712D0008712D0008712D0008A8
:1000C000712D0008712D0008712D0008712D000898
:1000D000712D0008712D0008712D0008712D000888
:1000E000712D0008712D0008712D0008712D000878
:1000F000712D0008712D0008712D0008712D000868
:10010000000000000000000000000000712D000849
:10011000712D0008712D0008712D0008712D000847
:10012000712D0008712D0008712D0008712D000837
:10013000712D0008712D0008000000000000000073
:10014000712D0008712D0008712D000800000000BD
:10015000000000000000000000000000000000009F
:100160000000000000000000712D0008712D000843
:10017000712D0008000000000000000000000000D9
:1001800000000000712D000800B583B002F0E0FD12
:10019000384B394A1360394A136039490CE00A6810
:1001A0004B6801F10C04886803E01168196004339E
:1001B00004329842F9D82146324B9942EFD32E4B64
:1001C0001A68314B9A4204D12C4B1A682F4B9A4231
:1001D00000D0FEE7274B2E4A13602E4A13602E4BA9
:1001E0000AE0194651F8082B5B6802E00020106015
:1001F00004329A42FAD30B46284A9342F1D3244B55
:100200001B6813B9234B1B6803B1FEE702F0ACFD7A
:10021000694601A802F094FD214C224B1C1BA4103E
:10022000002504E01E4B53F8253098470135AC42B9
:10023000F8DC1D4C1D4B1C1BA410002504E01A4BC0
:1002400053F8253098470135AC42F8DC0099019805
:1002500003F02AF80546164C164B1C1BA41004E0AC
:10026000013C134B53F824309847002CF8DC284607
:1002700002F042FDBABADECA00000020A800002049
:100280002C03000844030008785634123254769840
:10029000AC0000208406002044030008540300083A
:1002A00054030008540300085403000854030008D2
:1002B000540300085403000808B5FFF765FF00BFAA
:1002C00000BEFEE71EF0040F0CBFEFF30880EFF353
:1002D00009807146124A104700BEFEE700BEFEE7E5
:1002E0001EF0040F0CBFEFF30880EFF30980714696
:1002F0000C4A104700BEFEE71EF0040F0CBFEFF3E0
:100300000880EFF309807146074A104700BEFEE7F8
:1003100000BEFEE700BEFEE700BEFEE7704700003D
:0C032000D9020008F50200080D030008D7
:10032C00C450000800000020AC000020C45000089D
:10033C000000001000000010AC0000208806002017
:08034C00000000100000001089
:1003600010B504460E4B18784FF47A73B3FBF0F3D4
:100370000C4A1068B0FBF3F000F09CF858B90F2C51
:100380000BD8002221464FF0FF3000F051F8064B09
:100390001C60002010BD012010BD012010BD00BF59
:1003A00008000020140000200400002008B5074ABF
:1003B000136843F010031360032000F01BF80020C3
:1003C000FFF7CEFF03F088F8002008BD00200240B0
:1003D000034A1368034909780B441360704700BF50
:1003E000D800002008000020014B1868704700BFAB
:1003F000D800002010B50446C31E042B03D9BC212D
:10040000094803F067F8094AD36823F4E0631B0442
:100410001B0C240204F4E064234343F0BF6343F461
:100420000033D36010BD00BF984C000800ED00E021
:1004300070B504460E4615460F2A03D9D4211A4832
:1004400003F048F80F2E03D9D521174803F042F8DE
:10045000164BDA68C2F30222C2F10701042928BF51
:100460000421131D062B01D9033A00E000220123C9
:1004700003FA01F101393140914003FA02F2013AE5
:100480002A400A43002C06DA04F00F041201D2B20B
:10049000074B1A5570BD1201D2B204F1604404F545
:1004A000614484F8002370BD984C000800ED00E022
:1004B00014ED00E00138B0F1807F0AD2064B58609D
:1004C000F021064A82F823100020986007221A6063
:1004D00070470120704700BF10E000E000ED00E031
:1004E0002DE9F04782B005460C46B0F1904F16D08A
:1004F000A14B984213D003F5806398420FD003F5C7
:10050000806398420BD003F58063984207D003F5CF
:100510008063984203D0C321984802F0DBFF236830
:100520009AB212B11B0C1B041BB1C421934802F0F8
:10053000D1FF6368012B22D9112B20D0022B1ED0B2
:10054000122B1CD08E4A934219D002F5801293428E
:1005500015D002F58012934211D0A2F5F812934201
:100560000DD002F58012934209D002F58012934219
:1005700005D0032B03D0C521804802F0ABFFA36850
:10058000022B03D9C6217D4802F0A4FF0026EBE030
:100590004FF0010808FA06F813EA080700F0E380B4
:1005A0006368022B01D0122B34D1B5F1904F16D0D5
:1005B000714B9D4213D003F580639D420FD003F52C
:1005C00080639D420BD003F580639D4207D003F505
:1005D00080639D4203D0D521684802F07BFF2369E8
:1005E0000C2B07D90E2B05D00F2B03D0D621634837
:1005F00002F070FFF208083255F8220006F00703F7
:1006000099000F238B4020EA030023698B400343AA
:1006100045F822302B684FEA460A4FF0030909FAE1
:100620000AF96FEA090903EA0902636803F00303A0
:1006300003FA0AF313432B6063685A1E012A03D995
:10064000112B01D0122B1AD1E368012B05D9032BF2
:1006500003D0EA21494802F03DFFAB6809EA0302F2
:10066000E36803FA0AF31343AB606B6823EA0808F4
:100670006368C3F30013B34048EA03036B60EB689D
:1006800009EA0309A36803FA0AF349EA0303EB60E2
:10069000636813F0805F66D03A4B9A6942F00102BA
:1006A0009A619B6903F001030193019BB1088A1CC5
:1006B000354B53F8222006F003039B000F2098408F
:1006C00022EA0000B5F1904F10D02B4A95420FD08E
:1006D00002F5806295420DD002F5806295420BD002
:1006E00002F58062954209D1042208E0002206E06A
:1006F000012204E0022202E0032200E0052202FAC5
:1007000003F303430231204A42F821301F4B1A6899
:10071000FB4302EA0301606810F4803F01D047EA1E
:1007200002011A4A1160526803EA0201606810F47B
:10073000003F01D047EA0201144A5160926803EA7F
:100740000201606810F4801F01D047EA02010F4ADD
:100750009160D2681340616811F4001F01D047EA2C
:1007600002030A4AD3600136236833FA06F27FF4A3
:100770000FAF02B0BDE8F08700040048C84C000885
:100780000000111000100240000001400004014070
:1007900070B5054614460E4621B94FF4D871074886
:1007A00002F098FE012C04D940F2B111034802F086
:1007B00091FE0CB1AE6170BDAE6270BDC84C000858
:1007C00038B504460D4621B94FF4E371034802F0F1
:1007D00081FE61696940616138BD00BFC84C000895
:1007E000002800F0A88010B504460368534A9342DD
:1007F00008D002F58062934204D040F2A311504821
:1008000002F068FEA368B3F5806F04D34FF4D27191
:100810004B4802F05FFEE368013B012B04D940F234
:10082000A511474802F056FE23693BB1B3F5004FCE
:1008300004D04FF4D371424802F04CFE6369FF2BA1
:1008400004D940F2A7113E4802F044FEA369072BE9
:1008500004D94FF4D4713A4802F03CFEE3693BB14D
:10086000B3F5002F04D040F2A911354802F032FE52
:10087000236A3BB1B3F5003F04D04FF4D571304843
:1008800002F028FE94F8413013F0FF0F05D1002349
:1008900084F84030204602F03DFE242384F84130A5
:1008A0002268136823F0010313602268636823F051
:1008B000706313612268936823F400439360E368D4
:1008C000012B05D12268A36843F40043936004E040
:1008D0002268A36843F404439360E368022B03D1C6
:1008E00023684FF400625A602268536843F0007333
:1008F00043F4004353602268D36823F40043D36079
:100900002268216963690B43A16943EA0123D3602B
:100910002268E169236A0B4313602268136843F07D
:100920000103136000206064202384F841302063B9
:1009300084F8420010BD0120704700BF0054004001
:10094000F84C000838B504460D4603681F4A934228
:1009500007D002F58062934203D074211C4802F054
:10096000B9FD35B1B5F5805F03D07521184802F0A7
:10097000B1FD94F84130DBB2202B23D194F8403004
:10098000012B21D0012384F84030242384F8413006
:100990002268136823F0010313602268136823F4AC
:1009A00080531360226813681D4315602268136822
:1009B00043F001031360202384F84130002084F8C1
:1009C000400038BD022038BD022038BD0054004030
:1009D000244D000838B504460D4603681D4A93426D
:1009E00007D002F58062934203D0A2211A4802F098
:1009F00071FD0F2D03D9A321174802F06BFD94F868
:100A00004130DBB2202B21D194F84030012B1FD094
:100A1000012384F84030242384F84130226813688D
:100A200023F0010313602268136823F4706343EA20
:100A3000052515602268136843F001031360202325
:100A400084F84130002084F8400038BD022038BDD1
:100A5000022038BD00540040244D000800285AD020
:100A600010B5044602682D4B9A4203D097212C48BA
:100A700002F030FD94F8713313F0FF0F05D100231D
:100A800084F87033204602F0D7FD032384F87133D5
:100A900000220FE0D100891A8B002344012183F842
:100AA000291083F82820002183F82B1059639963BB
:100AB000D963013260688242ECD3002211E0D10098
:100AC000891A8B002344002183F8CD1183F8CC21AF
:100AD00083F8CF11C3F8D811C3F8DC11C3F8E011C3
:100AE00001328242EBD322680123A2F8403022680F
:100AF0000020A2F840002268A2F844002268A2F870
:100B0000500022684FF43F41A2F8401084F82400BE
:100B100084F8713310BD0120704700BF005C0040B5
:100B2000544D0008002800F0718370B582B004466F
:100B300003683BB113F00F0F04D140F25711B948CD
:100B400002F0C8FC236813F0010F00F0AA8063686C
:100B500053B1B3F5803F07D0B3F5A02F04D040F2D6
:100B60005D11B04802F0B6FCAF4B5B6803F00C03BC
:100B7000042B0AD0AC4B5B6803F00C03082B1BD191
:100B8000A94B5B6813F4803F16D04FF4003393FAFF
:100B9000A3F3A54B19684FF4003393FAA3F3B3FA08
:100BA00083F303F01F03012202FA03F3194278D002
:100BB0006368002B75D12BE36368B3F5803F05D1E3
:100BC000994A136843F48033136026E063B903F154
:100BD000804303F504331A6822F480321A601A68DD
:100BE00022F480221A6018E0B3F5A02F0CD103F193
:100BF0008043A3F53C331A6842F480221A601A68D5
:100C000042F480321A6008E0874B1A6822F480327E
:100C10001A601A6822F480221A608349CB6A23F092
:100C20000F02A3681343CB626368EBB1FFF7DCFBF1
:100C3000054605E0FFF7D8FB401B642800F2EA8276
:100C40004FF4003393FAA3F3774B19684FF4003352
:100C500093FAA3F3B3FA83F303F01F03012202FA1A
:100C600003F31942E6D01CE0FFF7BEFB054605E0A2
:100C7000FFF7BAFB401B642800F2CE824FF400332A
:100C800093FAA3F3684B19684FF4003393FAA3F374
:100C9000B3FA83F303F01F03012202FA03F31942AC
:100CA000E6D1236813F0020F00F0A0802369012B26
:100CB00004D940F295115B4802F00CFC63691F2BCC
:100CC00004D94FF4CB71574802F004FC564B5B68D3
:100CD00013F00C0F0AD0544B5B6803F00C03082B85
:100CE00027D1514B5B6813F4803F22D1022393FA42
:100CF000A3F34D4B1968022393FAA3F3B3FA83F3DA
:100D000003F01F03012202FA03F3194203D02369FF
:100D1000934240F083824448036823F0F8016369FA
:100D2000F82292FAA2F2B2FA82F293400B430360E5
:100D30005CE023699BB3012292FAA2F3B3FA83F336
:100D400003F1845303F584139B001A60FFF74CFBF7
:100D5000054605E0FFF748FB401B022800F26082D1
:100D6000022393FAA3F3304B1968022393FAA3F3F7
:100D7000B3FA83F303F01F03012202FA03F31942CB
:100D8000E8D02948036823F0F8016369F82292FA51
:100D9000A2F2B2FA82F293400B43036026E00123F1
:100DA00093FAA3F3B3FA83F303F1845303F58413A3
:100DB0009B0000221A60FFF717FB054605E0FFF7CE
:100DC00013FB401B022800F22D82022393FAA3F3A7
:100DD000154B1968022393FAA3F3B3FA83F303F0D4
:100DE0001F03012202FA03F31942E8D1236813F02A
:100DF000080F60D0A369012B04D94FF4EB710948A7
:100E000002F068FBA36973B3012191FAA1F2B2FA6F
:100E100082F2064B13449B001960FFF7E5FA054682
:100E20000CE000BF804D00080010024020819010AF
:100E3000FFF7DAFA401B022800F2F681022393FA48
:100E4000A3F293FAA3F293FAA3F2B04A516A93FA87
:100E5000A3F3B3FA83F303F01F03012202FA03F3AF
:100E60001942E5D027E0012292FAA2F2B2FA82F208
:100E7000A74B13449B0000221A60FFF7B5FA054602
:100E800005E0FFF7B1FA401B022800F2CF810223F0
:100E900093FAA3F293FAA3F293FAA3F29B4A516A4C
:100EA00093FAA3F3B3FA83F303F01F03012202FAC8
:100EB00003F31942E5D1236813F0040F00F0C48056
:100EC000E368012B06D9052B04D040F2022191489A
:100ED00002F000FB8D4BDB6913F0805F0BD18B4B75
:100EE000DA6942F08052DA61DB6903F080530193E2
:100EF000019B012500E00025874B1B6813F4807FD0
:100F000013D1854A136843F480731360FFF76CFABA
:100F1000064605E0FFF768FA801B642800F2888126
:100F20007D4B1B6813F4807FF4D0E368012B05D15F
:100F3000764A136A43F00103136222E063B903F1B6
:100F4000804303F504331A6A22F001021A621A6A16
:100F500022F004021A6214E0052B09D16B4B1A6AC5
:100F600042F004021A621A6A42F001021A6208E0B0
:100F7000664B1A6A22F001021A621A6A22F004020F
:100F80001A62E3686BB3FFF72FFA064607E0FFF734
:100F90002BFA801B41F28833984200F24B810223E6
:100FA00093FAA3F293FAA3F3B3FA83F35B0943F042
:100FB0000203DBB2022B02D1544B196A04E0022374
:100FC00093FAA3F3514B596A022393FAA3F3B3FAAA
:100FD00083F303F01F03012202FA03F31942D6D070
:100FE0002CE0FFF701FA064607E0FFF7FDF9801B4A
:100FF00041F28833984200F21F81022393FAA3F250
:1010000093FAA3F3B3FA83F35B0943F00203DBB271
:10101000022B02D13D4B196A04E0022393FAA3F399
:101020003A4B596A022393FAA3F3B3FA83F303F01A
:101030001F03012202FA03F31942D6D125B1334A24
:10104000D36923F08053D361E369022B04D940F2C2
:101050004621304802F03EFAE369002B00F0EE80B2
:101060002A4A526802F00C02082A00F0E980022B9A
:1010700040F0A180236A3BB1B3F5803F04D040F239
:101080004F21244802F026FA636A73B3B3F5802F28
:101090002BD0B3F5002F28D0B3F5402F25D0B3F5D2
:1010A000801F22D0B3F5A01F1FD0B3F5C01F1CD0E6
:1010B000B3F5E01F19D0B3F5001F16D0B3F5101F1C
:1010C00013D0B3F5201F10D0B3F5301F0DD0B3F5FA
:1010D000401F0AD0B3F5501F07D0B3F5601F04D0EE
:1010E0004FF414710B4802F0F5F94FF0807393FA46
:1010F000A3F3B3FA83F303F1845303F584139B0042
:1011000000221A60FFF770F905460DE0001002405A
:1011100020819010804D000800700040FFF764F9B6
:10112000401B022800F28E804FF0007393FAA3F365
:10113000484B19684FF0007393FAA3F3B3FA83F3A3
:1011400003F01F03012202FA03F31942E6D14148DA
:10115000436823F47411636A226A13430B434360A8
:101160004FF0807393FAA3F3B3FA83F303F184533C
:1011700003F584139B0001221A60FFF735F904463A
:1011800004E0FFF731F9001B02285DD84FF000732F
:1011900093FAA3F32F4B19684FF0007393FAA3F35C
:1011A000B3FA83F303F01F03012202FA03F3194297
:1011B000E7D000204BE04FF0807393FAA3F3B3FA2B
:1011C00083F303F1845303F584139B0000221A6018
:1011D000FFF70AF9044604E0FFF706F9001B0228AE
:1011E00034D84FF0007393FAA3F31A4B19684FF0F9
:1011F000007393FAA3F3B3FA83F303F01F030122FE
:1012000002FA03F31942E7D1002020E001207047E1
:1012100001201CE003201AE0032018E0012016E062
:10122000032014E0032012E0032010E003200EE06E
:1012300003200CE003200AE0032008E0002006E081
:10124000012004E0032002E0032000E0032002B0BC
:1012500070BD00BF00100240164B5B6803F00C022B
:10126000082A25D103F470114FF4701292FAA2F2F9
:10127000B2FA82F221FA02F20F498A5C0D49C96A78
:1012800001F00F000F2191FAA1F1B1FA81F120FADA
:1012900001F10A48405C13F4803F05D0084BB3FBD2
:1012A000F0F000FB02F07047064800FB02F07047C8
:1012B0000348704700100240BC4D0008AC4D0008C8
:1012C00000127A0000093D00002800F0108170B57E
:1012D00004460D46036813F00F0F04D140F2BA2103
:1012E0008A4802F0F7F8022D04D940F2BB21874862
:1012F00002F0F0F8864B1B6803F007039D420BD900
:10130000834A136823F007032B431360136803F029
:1013100007039D4240F0ED80236813F0020F1DD0BB
:10132000A368A3B1802B12D0902B10D0A02B0ED08D
:10133000B02B0CD0C02B0AD0D02B08D0E02B06D07D
:10134000F02B04D040F2D221704802F0C3F871496A
:101350004B6823F0F002A36813434B60236813F03B
:10136000010F5FD06368022B04D940F2D92167488E
:1013700002F0B0F86268012A13D14FF4003393FAF7
:10138000A3F3644B18684FF4003393FAA3F3B3FA52
:1013900083F303F01F03012101FA03F3184228D15C
:1013A000A9E0022A13D14FF0007393FAA3F3594B2B
:1013B00018684FF0007393FAA3F3B3FA83F303F0C2
:1013C0001F03012101FA03F3184212D195E0022311
:1013D00093FAA3F34F4B1868022393FAA3F3B3FADB
:1013E00083F303F01F03012101FA03F3184200F015
:1013F000868048494B6823F0030313434B60FEF794
:10140000F3FF064606E0FEF7EFFF801B41F288334C
:10141000984276D83F4B5B6803F00C036268B3EBED
:10142000820FF0D13A4B1B6803F007039D420AD2AA
:10143000374A136823F007032B431360136803F044
:1014400007039D425FD1236813F0040F19D0E368AE
:1014500083B1B3F5806F0DD0B3F5A06F0AD0B3F5AB
:10146000C06F07D0B3F5E06F04D040F215312748C4
:1014700002F030F827494B6823F4E062E368134335
:101480004B60236813F0080F1AD0236983B1B3F5BA
:10149000806F0DD0B3F5A06F0AD0B3F5C06F07D041
:1014A000B3F5E06F04D04FF44771184802F012F81A
:1014B000184A536823F46053216943EAC103536017
:1014C000FFF7CAFE134B5B6803F0F002F02393FAB8
:1014D000A3F3B3FA83F322FA03F30F4AD35CD840A1
:1014E0000E4B18600020FEF73BFF002070BD01206E
:1014F0007047012070BD012070BD012070BD01202A
:1015000070BD032070BD012070BD00BF804D00087C
:101510000020024000100240584E00081400002035
:10152000014B1868704700BF1400002008B5FFF792
:10153000F7FF084B5B6803F4E0624FF4E06393FA53
:10154000A3F3B3FA83F322FA03F3034AD35CD8403C
:1015500008BD00BF00100240684E000808B5FFF744
:10156000DFFF084B5B6803F460524FF4605393FA5B
:10157000A3F3B3FA83F322FA03F3034AD35CD8400C
:1015800008BD00BF00100240684E0008F0B583B0EF
:1015900004460368B3F54D3F03D37D21424801F073
:1015A00099FF236813F4803F00F0A380636863B160
:1015B000B3F5807F09D0B3F5007F06D0B3F5407F47
:1015C00003D08321384801F085FF384BDB6913F0E5
:1015D000805F0BD1354BDA6942F08052DA61DB690A
:1015E00003F080530193019B012500E00025304B5F
:1015F0001B6813F4807F13D12D4A136843F4807362
:101600001360FEF7F1FE064605E0FEF7EDFE801BD7
:10161000642800F2D881264B1B6813F4807FF4D035
:10162000224B1B6A13F4407357D0626802F4407275
:10163000934252D01D4E306A20F440774FF48031EF
:1016400091FAA1F3B3FA83F31A4A13449B004FF0C3
:10165000010EC3F800E091FAA1F1B1FA81F10A4458
:10166000920000231360376210F0010F35D0FEF7AF
:10167000BBFE064607E0FEF7B7FE801B41F288334B
:10168000984200F2A281022393FAA3F293FAA3F301
:10169000B3FA83F35B0943F00203DBB2022B0BD1F5
:1016A000024B196A0DE000BFCC4D0008001002404B
:1016B0000070004000819010022393FAA3F3A94B1D
:1016C000596A022393FAA3F3B3FA83F303F01F03D7
:1016D000012202FA03F31942CDD0A2490B6A23F486
:1016E0004072636813430B621DB1CB6923F08053D2
:1016F000CB61236813F0010F0DD0A368032B03D92E
:10170000CA21994801F0E6FE96490B6B23F00302CB
:10171000A36813430B63236813F0020F15D0E3682B
:1017200063B1B3F5803F09D0B3F5003F06D0B3F500
:10173000403F03D0D5218C4801F0CCFE89490B6B8A
:1017400023F44032E36813430B63236813F0040F60
:1017500015D0236963B1B3F5802F09D0B3F5002FFD
:1017600006D0B3F5402F03D0E1217F4801F0B2FE4F
:101770007C490B6B23F44022236913430B632368DA
:1017800013F0200F0ED0E3692BB1102B03D0EC2106
:10179000754801F09FFE73490B6B23F01002E3695B
:1017A00013430B63236813F4003F0FD0A36BB3F50F
:1017B000800F04D01BB1FA216B4801F08BFE694900
:1017C0004B6823F48002A36B13434B60236813F030
:1017D000400F0FD0236A33B1202B04D04FF4877110
:1017E000614801F077FE5F490B6B23F02002236A0A
:1017F00013430B63236813F0080F16D063696BB1B2
:10180000B3F5801F0AD0B3F5001F07D0B3F5401F12
:1018100004D040F22F11544801F05CFE51490B6B8B
:1018200023F44012636913430B63236813F0100F12
:1018300016D0A3696BB1B3F5800F0AD0B3F5000FD2
:1018400007D0B3F5400F04D040F23911464801F0FB
:1018500041FE44490B6B23F44002A36913430B631D
:10186000236813F4007F10D0E36A3BB1B3F5000F97
:1018700004D040F249113C4801F02CFE39494B6834
:1018800023F40002E36A13434B60236813F0800FD4
:1018900031D0636A43B3B3F5807F25D0B3F5887F39
:1018A00022D0B3F5907F1FD0B3F5987F1CD0B3F54D
:1018B000A07F19D0B3F5A87F16D0B3F5B07F13D0B1
:1018C000B3F5B87F10D0B3F5C07F0DD0B3F5C87FA6
:1018D0000AD0B3F5D07F07D0B3F5D87F04D040F25B
:1018E0006911214801F0F6FD1E49CB6A23F4F87214
:1018F000636A1343CB62236813F4807F37D0A36AF3
:1019000043B3B3F5005F25D0B3F5085F22D0B3F53C
:10191000105F1FD0B3F5185F1CD0B3F5205F19D04E
:10192000B3F5285F16D0B3F5305F13D0B3F5385F49
:1019300010D0B3F5405F0DD0B3F5485F0AD0B3F5D2
:10194000505F07D0B3F5585F04D04FF4BD7106481F
:1019500001F0C0FD0349CB6A23F47852A36A134314
:1019600004E000BF00100240CC4D0008CB622368A9
:1019700013F4805F10D0236B3BB1B3F5807F04D0AC
:101980004FF4CD71134801F0A5FD13490B6B23F4FF
:101990008072236B13430B63236813F4005F16D02C
:1019A000636B3BB1B3F5007F04D04FF4D6710948A7
:1019B00001F090FD08490B6B23F40072636B134335
:1019C0000B63002004E0032002E0032000E000207D
:1019D00003B0F0BDCC4D000800100240F8B505463C
:1019E0000F4616461C4634E0B4F1FF3F31D02CB10F
:1019F000FEF7FAFC069BC01A84422AD82A6853686C
:101A000023F0E00353606B68B3F5827F0BD1AB68C2
:101A1000B3F5004F02D0B3F5806F04D12A68136884
:101A200023F040031360AB6AB3F5005F09D12A6865
:101A3000136823F4005313602A68136843F40053B7
:101A40001360012385F85D30002385F85C300320A6
:101A5000F8BD2B689B6837EA030301D1012300E03E
:101A60000023B342C0D10020F8BD00BFF0B583B061
:101A700007460C4615461E463EE0B4F5C06F06D13B
:101A80002DB9137BDBB28DF807309DF80730B6F126
:101A9000FF3F31D02EB1FEF7A7FC089BC01A86424B
:101AA0002AD83A68536823F0E00353607B68B3F5A3
:101AB000827F0BD1BB68B3F5004F02D0B3F5806FC6
:101AC00004D13A68136823F040031360BB6AB3F58E
:101AD000005F09D13A68136823F4005313603A6831
:101AE000136843F400531360012387F85D3000232B
:101AF00087F85C30032005E03A6893682340AB42E6
:101B0000BBD1002003B0F0BD70B582B004460D46D5
:101B1000164600920B4600224FF4C051FFF7A6FF75
:101B200028B1236E43F02003236603231CE00096B4
:101B30002B46002280212046FFF750FF28B1236E5C
:101B400043F02003236603230EE000962B46002279
:101B50004FF4C0612046FFF789FF034620B1236E92
:101B600043F0200323660323184602B070BD00BF74
:101B700070B582B004460D4616464368B3F5827FC1
:101B80000BD18368B3F5004F02D0B3F5806F04D159
:101B90002268136823F04003136000962B4600224E
:101BA00080212046FFF71AFF034628B1236E43F039
:101BB00020032366032319E06268B2F5827F15D102
:101BC000A268B2F5004F02D0B2F5806F0ED1009638
:101BD0002B4600224FF4C0612046FFF747FF034623
:101BE00020B1236E43F0200323660323184602B07E
:101BF00070BD00BF002800F0008110B504460368E6
:101C00007F4A93420CD0A2F57842934208D002F565
:101C10008062934204D040F21B117A4801F05AFCD2
:101C200063683BB1B3F5827F04D04FF48E71754881
:101C300001F050FCA36853B1B3F5806F07D0B3F542
:101C4000004F04D040F21D116E4801F043FCE368E0
:101C5000B3F5706F28D0B3F5606F25D0B3F5506F32
:101C600022D0B3F5406F1FD0B3F5306F1CD0B3F561
:101C7000206F19D0B3F5106F16D0B3F5006F13D0E5
:101C8000B3F5E06F10D0B3F5C06F0DD0B3F5A06F12
:101C90000AD0B3F5806F07D0B3F5407F04D04FF47E
:101CA0008F71584801F016FCA369B3F5007F08D086
:101CB0003BB1B3F5802F04D040F21F11514801F021
:101CC00009FC636B082B05D023B14FF490714D488C
:101CD00001F000FCE36993B1082B10D0102B0ED05B
:101CE000182B0CD0202B0AD0282B08D0302B06D054
:101CF000382B04D040F22111424801F0EBFB236A5B
:101D000033B1802B04D04FF491713E4801F0E2FBD7
:101D1000636A33B1102B04D040F22311394801F02B
:101D2000D9FB636A83B9236933B1022B04D04FF422
:101D30009371344801F0CEFB6369012B04D940F262
:101D40002711304801F0C6FB0023A36294F85D30F0
:101D500013F0FF0F05D1002384F85C30204601F01A
:101D60000FFC022384F85D302268136823F04003DF
:101D70001360E268B2F5E06F01D9002001E04FF492
:101D80008050B2F5706F04D0B2F5E06F01D000233F
:101D9000A362236B3BB9B2F5E06F02D90223236340
:101DA00001E00123236321686268A3681A43236961
:101DB0001A4363691343A26902F400721A43E36988
:101DC0001A43236A1A43A36A13430B602168638B87
:101DD00003F00403626A1343626B1A43E36813431C
:101DE00003434B602268D36923F40063D36100206E
:101DF0002066012384F85D3010BD0120704700BFCC
:101E000000300140FC4D00082DE9F04182B004464D
:101E10000D4690461E4683683BB1B3F5004F04D093
:101E20004FF4FF71714801F055FB94F85C30012BC1
:101E300000F0D880012384F85C30FEF7D5FA07461D
:101E400094F85D30DBB2012B40F0B680002D00F03D
:101E5000B580B8F1000F00F0B380032384F85D3043
:101E600000232366A563A4F83C80A4F83E80236485
:101E7000A4F84430A4F846302365E364A368B3F5BE
:101E8000004F04D12268136843F480431360236831
:101E90001A6812F0400F03D11A6842F040021A602B
:101EA000E368B3F5E06F2CD963681BB1E38F9BB295
:101EB000012B21D1236835F8022BDA60E38F9BB226
:101EC000013B9BB2E38717E023689A6812F0020F88
:101ED00008D035F8022BDA60E38F9BB2013B9BB24E
:101EE000E38709E0002E6DD0B6F1FF3F04D0FEF786
:101EF0007BFAC01B864267D9E38F9BB2002BE3D1EC
:101F000045E063681BB1E38F9BB2012B3BD1E38FAC
:101F10009BB2012B09D9236835F8022BDA60E38FD5
:101F20009BB2023B9BB2E3872DE023682A781A73A9
:101F3000E38F9BB2013B9BB2E387013523E023682B
:101F40009A6812F0020F15D0E28F92B2012A08D9D6
:101F500035F8022BDA60E38F9BB2023B9BB2E3873A
:101F600011E02A781A73E38F9BB2013B9BB2E3879F
:101F7000013508E056B3B6F1FF3F04D0FEF734FA5E
:101F8000C01B864224D9E38F9BB2002BD7D13A469F
:101F900031462046FFF7B8FD08B120232366A36829
:101FA00033B901932368DA6801929B680193019B1E
:101FB000236E7BB900200EE002200CE001200AE035
:101FC000012008E0032006E0032004E0032002E0F3
:101FD000032000E00120012384F85D30002384F811
:101FE0005C3000E0022002B0BDE8F081FC4D00084A
:101FF0002DE9F84304460F4616469946089D836826
:1020000023B140F2A131A84801F064FA94F85C30A1
:10201000012B00F05A81012384F85C30FEF7E4F9CB
:10202000804694F85D30DBB26268012B0AD0B2F5CD
:10203000827F40F02E81A268002A40F02C81042B80
:1020400040F02B81002F00F02A81002E00F0298122
:10205000B9F1000F00F02A8194F85D30DBB2042B57
:1020600002D0052384F85D30002323662664A4F89B
:102070004690A4F84490A763A4F83E90A4F83C903E
:10208000E3642365E368B3F5E06F04D8B4F8463041
:102090009BB2012B05D92268536823F48053536007
:1020A00004E02268536843F48053536023681A683D
:1020B00012F0400F03D11A6842F040021A60E36840
:1020C000B3F5E06F4FD963681BB1E38F9BB2012B6F
:1020D00008D1236837F8022BDA60E38F9BB2013B0B
:1020E0009BB2E3874FF0010933E0B9F1000F11D043
:1020F000E38F9BB273B123689A6812F0020F09D084
:1021000037F8022BDA60E38F9BB2013B9BB2E38787
:102110004FF00009B4F846309BB283B123689A6847
:1021200012F0010F0BD0DB6826F8023BB4F8463002
:102130009BB2013B9BB2A4F846304FF00109B5F1C8
:10214000FF3F06D0FEF750F9C8EB0000854240F291
:10215000AF80E38F9BB2002BC7D1B4F846309BB25F
:10216000002BC2D189E063681BB1E38F9BB2012BC6
:1021700016D1E38F9BB2012B09D9236837F8022BC4
:10218000DA60E38F9BB2023B9BB2E38708E02368EF
:102190003A781A73E38F9BB2013B9BB2E387013716
:1021A0004FF0010960E0B9F1000F20D0E38F9BB23E
:1021B000EBB123689A6812F0020F18D0E28F92B246
:1021C000012A0AD937F8022BDA60E38F9BB2023B6F
:1021D0009BB2E3874FF0000909E03A781A73E38F66
:1021E0009BB2013B9BB2E38701374FF00009B4F883
:1021F00046309BB27BB323689A6812F0010F2AD055
:10220000B4F8462092B2012A16D9DB6826F8023BC0
:10221000B4F846309BB2023B9BB2A4F84630B4F807
:1022200046309BB2012B14D82268536843F4805384
:1022300053604FF001090EE01B7B3370B4F8463059
:102240009BB2013B9BB2A4F8463001364FF0010926
:1022500001E04FF00109B5F1FF3F05D0FEF7C4F8EA
:10226000C8EB0000854225D9E38F9BB2002B9AD1A1
:10227000B4F846309BB2002B95D142462946204601
:10228000FFF742FC08B120232366236EA3B9002088
:1022900013E0022011E002200FE002200DE00120F7
:1022A0000BE0012009E000BFFC4D0008012004E024
:1022B000032002E0032000E00120012384F85D30C8
:1022C000002384F85C30BDE8F8830220BDE8F88381
:1022D0002DE9F04182B004460E4690461D46436803
:1022E000B3F5827F0AD1836843B9042380F85D3057
:1022F000009513460A46FFF77BFEADE094F85C308C
:10230000012B00F0A880012384F85C30FEF76CF804
:10231000074694F85D30DBB2012B40F08680002E3A
:1023200000F08580B8F1000F00F08380042384F86A
:102330005D30002323662664A4F84480A4F8468018
:10234000A363A387E387E3642365E368B3F5E06FE2
:1023500005D92268536823F48053536004E022684F
:10236000536843F480535360A368B3F5004F04D11E
:102370002268136823F48043136023681A6812F0FC
:10238000400F03D11A6842F040021A60E368B3F5C7
:10239000E06F1AD938E023689A6812F0010F0AD06A
:1023A0001B7B06F8013BB4F846309BB2013B9BB265
:1023B000A4F8463009E0002D3DD0B5F1FF3F04D030
:1023C000FEF712F8C01B854237D9B4F846309BB2ED
:1023D000002BE0D11DE023689A6812F0010F0AD0AB
:1023E000DB6826F8023BB4F846309BB2013B9BB257
:1023F000A4F8463008E015B3B5F1FF3F04D0FDF76F
:10240000F3FFC01B85421CD9B4F846309BB2002BA9
:10241000E1D13A4629462046FFF7AAFB08B120231E
:102420002366236E7BB900200EE002200CE0012021
:102430000AE0012008E0032006E0032004E0032076
:1024400002E0032000E00120012384F85D30002336
:1024500084F85C3000E0022002B0BDE8F08100BFEB
:10246000704700BF38B504464268A04B9A4204D971
:1024700040F639019E4801F02DF8A3683BB1B3F551
:10248000805F04D040F63A01994801F023F8E368F0
:10249000B3F5805F0BD053B1B3F5405F07D0B3F510
:1024A000005F04D040F63B01914801F013F8236926
:1024B00053B1B3F5806F07D0B3F5C06F04D040F6C9
:1024C0003C018B4801F006F8636933F00C0200D13F
:1024D00023B940F63D01864800F0FCFFA3696BB1CB
:1024E000B3F5807F0AD0B3F5007F07D0B3F5407F06
:1024F00004D040F63E017E4800F0ECFF236A3BB179
:10250000B3F5006F04D040F63F01794800F0E2FFD8
:10251000E3693BB1B3F5004F04D04FF40461744854
:1025200000F0D8FFA1682369194363691943E3697F
:1025300019432068026822F4164323F00C030B436E
:10254000036021684B6823F44052E36813434B60F7
:10255000A269236A1A4321688B6823F4306313430A
:102560008B602568634B9D4212D103F558431B6B6A
:1025700003F00303032B09D8DFE803F00204067E0F
:10258000012384E0042382E0082380E010237EE01E
:10259000594B9D4219D103F5E6331B6B03F44033CD
:1025A000B3F5803F0BD001D83BB10CE0B3F5003F51
:1025B00007D0B3F5403F61D005E0002367E0042376
:1025C00065E0082363E0102361E04C4B9D4219D184
:1025D00003F5E4331B6B03F44023B3F5802F0BD0DA
:1025E00001D83BB10CE0B3F5002F07D0B3F5402F75
:1025F00046D005E000234AE0042348E0082346E0F3
:10260000102344E03E4B9D4219D103F5E2331B6B8E
:1026100003F44013B3F5801F0BD001D83BB10CE09D
:10262000B3F5001F07D0B3F5401F2BD005E0002302
:102630002DE004232BE0082329E0102327E0314B71
:102640009D4221D103F5E0331B6B03F44003B3F546
:10265000800F0BD001D83BB10CE0B3F5000F07D0D1
:10266000B3F5400F12D005E0002310E004230EE084
:1026700008230CE010230AE0022308E0022306E00E
:10268000022304E0022302E0102300E00223E269B7
:10269000B2F5004F56D1082B4AD8DFE803F00510F9
:1026A0001B49354949494000FEF740FF63685A0815
:1026B00002EB4000B0FBF3F39BB200203AE0FEF7E0
:1026C0004DFF63685A0802EB4000B0FBF3F39BB286
:1026D00000202FE061684A0802F5740303F51053E7
:1026E000B3FBF1F39BB2002024E000BF405489000B
:1026F000284E0008003801400044004000480040D7
:10270000004C004000500040FEF7A6FD63685A08E8
:1027100002EB4000B0FBF3F39BB200200AE06268DA
:10272000530803F58033B3FBF2F39BB2002001E0C2
:102730000120002323F00F02C3F342031343226856
:10274000D36038BD082B3DD8DFE803F005101B3CF3
:10275000273C3C3C3200FEF7E9FE636800EB530087
:10276000B0FBF3F080B2E860002038BDFEF7F6FE63
:10277000636800EB5300B0FBF3F080B2E860002028
:1027800038BD61684A0802F5F40303F59053B3FBC2
:10279000F1F39BB2EB60002038BDFEF75DFD63688E
:1027A00000EB5300B0FBF3F080B2E860002038BDCE
:1027B0006268530803F50043B3FBF2F39BB2EB608E
:1027C000002038BD012038BD10B50446436AFF2BF8
:1027D00004D940F6A2016C4800F07CFE636A13F055
:1027E000010F10D0A36A3BB1B3F5003F04D040F60F
:1027F000A701654800F06EFE21684B6823F40032A3
:10280000A36A13434B60636A13F0020F10D0E36AAC
:102810003BB1B3F5803F04D040F6AE015A4800F01A
:1028200059FE21684B6823F48032E36A13434B60FE
:10283000636A13F0040F10D0236B3BB1B3F5802F04
:1028400004D040F6B501504800F044FE21684B68C2
:1028500023F48022236B13434B60636A13F0080F49
:1028600010D0636B3BB1B3F5004F04D040F6BC0110
:10287000454800F02FFE21684B6823F40042636B4B
:1028800013434B60636A13F0100F10D0A36B3BB17E
:10289000B3F5805F04D040F6C3013B4800F01AFE58
:1028A00021688B6823F48052A36B13438B60636AA7
:1028B00013F0200F10D0E36B3BB1B3F5005F04D0F1
:1028C00040F6CA01304800F005FE21688B6823F409
:1028D0000052E36B13438B60636A13F0400F3CD0EC
:1028E00023682A4A93420CD0A2F57442934208D03E
:1028F00002F58062934204D040F6D101224800F0F4
:10290000E9FD236C3BB1B3F5801F04D040F6D20142
:102910001D4800F0DFFD21684B6823F48012236C12
:1029200013434B60236CB3F5801F16D1636C6BB1FE
:10293000B3F5001F0AD0B3F5800F07D0B3F5C00F71
:1029400004D040F6D701104800F0C4FD21684B6860
:1029500023F4C002636C13434B60636A13F0800F6F
:1029600010D0A36C3BB1B3F5002F04D040F6DF01CB
:10297000054800F0AFFD21684B6823F40022A36CEA
:1029800013434B6010BD00BF284E000800380140C3
:102990002DE9F04105460F4616469846069C1EE076
:1029A000B4F1FF3F1BD02CB1FDF71EFDC8EB0000BA
:1029B000844214D22A68136823F4D07313602A68FF
:1029C000936823F001039360202385F8693085F82C
:1029D0006A30002385F868300320BDE8F0812B6859
:1029E000DB6937EA03030CBF01230023B342D7D0CE
:1029F0000020BDE8F08100BF2DE9F04182B01E4605
:102A000090F86930DBB2202B4FD104460D4690463A
:102A100000294CD0002A4CD090F86830012B4AD0C5
:102A2000012380F868300023C366212380F86930D1
:102A3000FDF7DAFC0746A4F85080A4F852801FE0A6
:102A4000B4F852309BB2013B9BB2A4F852300096CE
:102A50003B46002280212046FFF79AFF68BBA3680F
:102A6000B3F5805F08D1236933B9226835F8023B9A
:102A7000C3F30803138503E023682A781A85013518
:102A8000B4F852309BB2002BDAD100963B460022BC
:102A900040212046FFF77CFF034680B9202284F8BE
:102AA0006920002284F868200AE0022308E001235C
:102AB00006E0012304E0022302E0032300E00323F5
:102AC000184602B0BDE8F0812DE9F04182B01E4603
:102AD00090F86A30DBB2202B64D104460D46904654
:102AE000002961D0002A61D090F86830012B5FD0B6
:102AF000012380F868300023C366222380F86A30FF
:102B0000FDF772FC0746A4F85880A4F85A80A36821
:102B1000B3F5805F0AD1236923B940F2FF13A4F80B
:102B20005C300DE0FF23A4F85C3009E043B9236971
:102B30001BB9FF23A4F85C3002E07F23A4F85C30CB
:102B4000B4F85C8022E0B4F85A309BB2013B9BB2EF
:102B5000A4F85A3000963B46002220212046FFF779
:102B600017FF38BBA368B3F5805F08D1236933B979
:102B700023689B8C08EA030325F8023B06E02368E0
:102B80009B8C5FFA88F213402B700135B4F85A30F1
:102B90009BB2002BD7D1202384F86A30002084F820
:102BA000680008E0022006E0012004E0012002E0C5
:102BB000022000E0032002B0BDE8F08130B583B010
:102BC00004460023C366FDF70FFC054623681B6817
:102BD00013F0080F0AD06FF07E43009303460022E3
:102BE0004FF400112046FFF7D3FEC0B923681B68DD
:102BF00013F0040F0AD06FF07E4300932B4600229F
:102C00004FF480012046FFF7C3FE50B9202384F81B
:102C1000693084F86A30002084F8680002E00320FC
:102C200000E0032003B030BD00285ED010B504469C
:102C300083698BB103682E4A934226D0A2F5744271
:102C4000934222D002F5806293421ED040F23111AD
:102C5000284800F03FFC18E00368254A934214D04E
:102C6000A2F57442934210D002F5806293420CD0D8
:102C700002F58062934208D002F58062934204D04C
:102C80004FF49B711B4800F025FC94F8693013F059
:102C9000FF0F05D1002384F868302046FFF7E0FBE2
:102CA000242384F869302268136823F00103136039
:102CB0002046FFF7D7FB012819D0636A13B12046DD
:102CC000FFF782FD2268536823F490435360226823
:102CD000936823F02A0393602268136843F001038A
:102CE00013602046FFF76AFF10BD0120704710BD3A
:102CF00000380140284E0008FEE700BF08B50D4B24
:102D00001B6813B90C4A0B4B1A600A4B1A68C31C98
:102D100023F00303134409498B4206D901F016FB43
:102D20000C2303604FF0FF3008BD02490B601046D2
:102D300008BD00BFB000002088060020009C0020D5
:102D400001230360014B0B60704700BF0C000020A3
:102D500008B500F00FF8024B024A9A6008BD00BFA8
:102D600000ED00E00000000808B500F031F808BDF3
:102D7000FEE70000124B1A6842F001021A6059681F
:102D8000104A0A405A601A6822F0847222F4803293
:102D90001A601A6822F480221A605A6822F4FE022D
:102DA0005A60DA6A22F00F02DA62196B064A0A40A8
:102DB0001A6300229A604FF00062044B9A607047D9
:102DC000001002400CC07FF8CCFC00FF00ED00E0DA
:102DD0001D4B5B6803F00C03042B06D0082B08D0B6
:102DE0001BBB1A4A1A4B1A6022E0184A184B1A6089
:102DF0001EE0154A53685268C3F38343023312F44A
:102E0000803F05D1134A02FB03F3114A13600FE020
:102E10000D4AD26A02F00F02511C0C4AB2FBF1F2C9
:102E200002FB03F30A4A136002E0084A084B1A60E7
:102E3000054B5B68C3F30313074AD15C044A13686C
:102E4000CB401360704700BF0010024000127A00B0
:102E50001400002000093D00584E000808B500226B
:102E60004FF480510148FDF793FC08BD0004004871
:102E700008B501224FF480510148FDF789FC08BDD7
:102E80000004004800B583B04FF0FF3301220DF17C
:102E900007010448FFF71CFA9DF8070003B05DF82E
:102EA00004FB00BFE000002000B583B002A901F8D8
:102EB000010D4FF0FF3301220248FEF7A5FF03B0DA
:102EC0005DF804FBE000002070B58AB00024059492
:102ED0000694079408940994294B5A6942F4001205
:102EE0005A615A6902F400120092009A5A6942F437
:102EF00000225A615A6902F400220192019A5A6929
:102F000042F480025A615A6902F480020292029AE3
:102F10005A6942F400325A615A6902F4003203924B
:102F2000039A5A6942F480225A615B6903F4802350
:102F30000493049B134D22464FF608712846FDF773
:102F400027FC37230593104B0693079405A92846C1
:102F5000FDF7C6FA4FF60873059301260696079407
:102F6000089405A92846FDF7BBFA05960694079430
:102F700005A94FF09040FDF7B3FA0AB070BD00BF4D
:102F800000100240001000480000121038B50D4C2F
:102F90000D4B23600D4B63600025A5600123E360AA
:102FA00025616561A561E56125622046FDF718FC94
:102FB00029462046FDF7C6FC29462046FDF70AFDB6
:102FC00038BD00BF44010020005400400E0900201D
:102FD00008B50E480E4B03604FF482734360002324
:102FE00083604FF44072C260036143614FF400722A
:102FF00082610822C2610362436283620721C16267
:1030000003634263FEF7F6FD08BD00BF3C020020EB
:103010000030014008B50E480E4B03604FF4827338
:103020004360002383604FF4E062C2600361436148
:103030004FF4007282610822C261036243628362BC
:103040000721C16203634263FEF7D4FD08BD00BFE0
:10305000E00000200038004008B50748074B036037
:1030600008234360022282600023C36002618361FF
:103070000362FDF7F3FC08BDDC020020005C0040A9
:1030800010B586B0164C174B23604FF4E1336360E4
:103090000023A360E36023610C226261A361E3610A
:1030A00003F1804303F504339A6942F480429A6144
:1030B0009B6903F480430093009B4FF4C06301932A
:1030C00002230293032304930723059301A94FF0DE
:1030D0009040FDF705FA2046FFF7A6FD06B010BDAB
:1030E000CC0100200038014030B5A7B00024169470
:1030F0003C252A46214617A801F039F906942A46AC
:10310000214607A801F033F94FF4FA73022206A909
:103110003D48FFF7D9FC02223C4906A801F020FAFD
:1031200000286FD13A4D284601F012FA364C64233C
:1031300082B229462046FFF75FFC364D284601F053
:1031400007FA642382B229462046FFF755FC4FF068
:10315000FF33012206A92046FFF7B6FC684601F0BE
:10316000CBF89DF81830312B02D0322B3DD049E0FE
:10317000294916A801F0E4F916A801F0E9F9642339
:1031800082B216A92048FFF737FC244906A801F0AF
:10319000D7F900244FF0FF33012206A921441A4831
:1031A000FFF792FC0134E4B22246631E26A90B44C9
:1031B00013F8803C0D3B18BF01233F2C88BF002330
:1031C000002BE7D10A44002302F8803C06AA1449E8
:1031D00016A801F091F916A801F0BAF9642382B299
:1031E00016A90948FFF708FC0CE00E4916A801F0E3
:1031F000A7F916A801F0ACF9642382B216A9024817
:10320000FFF7FAFB27B030BDCC010020744E000858
:10321000784E0008A84E0008084F00080450000827
:10322000384F0008504F000870B59EB0282200218A
:1032300014A801F09CF800240F9410941194129497
:1032400013943C222146684601F091F8032314931D
:103250004FF4A023159301251895102319930226E6
:103260001B964FF480331C934FF480131D9314A8C6
:10327000FDF758FC0F230F93109611944FF48063C1
:103280001293139429460FA8FEF71EF8054B0093DE
:1032900007944FF480030E936846FEF777F91EB04B
:1032A00070BD00BF2000020030B59DB0794B18689A
:1032B0001B9000240B943C2221460CA801F057F8E7
:1032C000FDF774F8FFF7B0FFFFF7FEFDFFF75EFEB6
:1032D000FFF77EFEFFF7C0FEFFF79CFEFFF7D0FE74
:1032E0006D496E4800F012FF6D496E4800F020FFF6
:1032F0001BA9084600F06AFF0594079408940994F6
:10330000CDF8274008238DF81530DC238DF81630D2
:10331000AB238DF81730CD238DF81830EF238DF8BF
:103320001930C0238DF81A30A8218DF81B108DF8A4
:103330001D30FF228DF81E208DF81F208DF82020D3
:103340008DF822308DF8231002238DF824300123CC
:103350008DF8253005A800F0A5FF05A800F0CCFFEA
:10336000514D284601F0F4F8504C642382B22946AE
:103370002046FFF741FB9DF81A209DF81B309DF871
:103380001C109DF81D000190009149490BA801F007
:10339000B3F80BA801F0DCF8642382B20BA9204635
:1033A000FFF72AFB002341F288320121184600F082
:1033B000CFFBC2B2002A49D1002000F061FC0128F5
:1033C00051D106E04FF400713A48FDF7F9F9FFF7E3
:1033D0008BFE40F2034000F093F91428F2D040F243
:1033E000034000F08DF917280CBF0122002228D1DC
:1033F00004AA0421002000F0EBFD0DF10E020521CE
:10340000002000F0E5FD3C222B49002000F058FD93
:10341000FCF7EAFF294C02462949204601F06CF8E6
:10342000204601F095F882B22146002000F0A2FC6F
:1034300010F0FF0F17D1C2B22249204601F05CF80C
:1034400011E021491D4801F057F80CE01D490BA877
:1034500001F052F80BA801F07BF8642382B20BA9AB
:103460001248FFF7C9FA002000F03EFC002000F0EF
:1034700037FB03221549104801F072F820B94FF4C8
:1034800080610C48FDF79CF911490B4801F058F890
:1034900088E700BF704E0008712E00085D2E0008FE
:1034A000A92E0008852E0008704F0008CC010020CE
:1034B000A04F000800100048A0020020900100204A
:1034C000B44F0008DC4F0008085000082C500008DA
:1034D00004500008704700BF00B583B00C4B9A69D8
:1034E00042F001029A619A6902F001020092009A88
:1034F000DA6942F08052DA61DB6903F080530193AC
:10350000019B0720FCF776FF03B05DF804FB00BFCA
:103510000010024010B588B0002303930493059374
:10352000069307930268134B9A4220D1124C6369A9
:1035300043F480236361636903F480230193019B57
:10354000C0230393122304930123059303230693BB
:103550000423079303A90948FCF7C2FFE36943F476
:103560000013E361E36903F400130293029B08B0C4
:1035700010BD00BF0054004000100240000400488D
:1035800000B58BB000230593069307930893099326
:103590000368254A934220D1244B9A6942F4805211
:1035A0009A619A6902F480520192019A5A6942F42E
:1035B00000325A615B6903F400330293029BE023FB
:1035C000059302230693032308930523099305A972
:1035D0004FF09040FCF784FF22E0154A93421FD140
:1035E000124BDA6942F48042DA61DA6902F480420D
:1035F0000392039A5A6942F480225A615B6903F488
:1036000080230493049B4FF4704305930223069395
:10361000032308930523099305A90648FCF760FFD7
:103620000BB05DF804FB00BF003001400010024009
:10363000003800400004004810B588B00023039310
:1036400004930593069307930268134B9A4220D183
:10365000124C636943F400336361636903F400331C
:103660000193019B4FF4C05303930223049303235C
:1036700006930E23079303A94FF09040FCF730FF09
:10368000E36943F40003E361E36903F40003029395
:10369000029B08B010BD00BF005C0040001002405B
:1036A000704700BFFEE700BFFEE700BFFEE700BFB8
:1036B000FEE700BF704700BF704700BF704700BF04
:1036C00008B5FCF785FE08BD70B505460E460B4CE7
:1036D000A368984723699847E369F0209847E3690E
:1036E000C5F307209847E369E8B29847E369304695
:1036F000984763699847E368984770BD1C000020AD
:1037000038B505460B4CA368984723699847E36989
:103710000F209847E369C5F307209847E369E8B2AB
:103720009847A3699847054663699847E3689847AF
:10373000284638BD1C0000202DE9F0410646884689
:103740001746134CA368984723699847002416E04E
:103750000F4D2B699847EB69F0209847EB69A0194A
:10376000C0F307209847EB693019C0B29847EB695E
:1037700018F8040098476B6998470134A4B2BC421A
:10378000E6D3034C63699847E3689847BDE8F08146
:103790001C0000202DE9F041064688461746134CD0
:1037A000A368984723699847002416E00F4D2B69BA
:1037B0009847EB690F209847EB69A019C0F30720E1
:1037C0009847EB693019C0B29847AB69984708F839
:1037D00004006B6998470134A4B2BC42E6D3034CA1
:1037E00063699847E3689847BDE8F0811C000020B2
:1037F0002DE9F0410746002507F104084FEA0828A3
:1038000008F120063046FFF77BFF80B20402A4B225
:1038100008F121084046FFF773FF204484B254B1F9
:103820003046FFF76DFF80B20502ADB24046FFF7AC
:1038300067FF284485B2A542DED12846BDE8F08165
:103840002DE9F0410746002507F104084FEA082852
:1038500008F126063046FFF753FF80B20402A4B2F7
:1038600008F127084046FFF74BFF204484B254B1CB
:103870003046FFF745FF80B20502ADB24046FFF784
:103880003FFF284485B2A542DED12846BDE8F0813D
:1038900070B506464FF4C045002410E01A20FFF72B
:1038A0002FFF62000323934018401041012303FAC5
:1038B00000F0054A02EA802005441C4464B2B44288
:1038C000ECDB284670BD00BF00FCFF0370B5064668
:1038D0004FF48045002410E01B20FFF711FF620029
:1038E0000323934018401041012303FA00F0054AD6
:1038F00002EA802005441C4464B2B442ECDB284652
:1039000070BD00BF00FCFF032DE9F04F85B081467C
:1039100003911546041D240204F124030093184664
:10392000FFF7EEFE064604F1250301931846FFF764
:10393000E7FE00EB062086B21B20FFF7E1FE4FEA10
:10394000490A032707FA0AF7384040FA0AF44FF009
:10395000010808FA04F4A402013C34404846FFF789
:10396000B5FF204483B2029304EB050B1B20FFF745
:10397000C7FE384040FA0AF008FA00F81C4800EA8E
:103980008828C34521DD1B20FFF7BAFE384040FAE6
:103990000AFA012000FA0AFA1FFA8AFAC4EB8A240A
:1039A000A4B22246039F39460298FFF7C5FE3B4664
:1039B00023441F462C1BA4B24846FFF787FF22462C
:1039C000394680B2FFF7B8FE04E02A460399029810
:1039D000FFF7B2FE3544ADB2290A0098FFF774FE36
:1039E000E9B20198FFF770FE05B0BDE8F08F00BFA7
:1039F00000FCFF032DE9F04F85B081460391154689
:103A0000041D240204F1280300931846FFF778FEF2
:103A1000064604F1290301931846FFF771FE00EBF7
:103A2000062086B21A20FFF76BFE4FEA490A0327E9
:103A300007FA0AF7384040FA0AF44FF0010808FA8A
:103A400004F4A4B2A402013C34404846FFF720FF2E
:103A5000204483B2029304EB050B1A20FFF750FEBB
:103A6000384040FA0AF008FA00F81C4800EA8828B2
:103A7000C34521DD1A20FFF743FE384040FA0AFA19
:103A8000012000FA0AFA1FFA8AFAC4EB8A24A4B2C7
:103A90002246039F39460298FFF77CFE3B462344AB
:103AA0001F462C1BA4B24846FFF7F2FE22463946B9
:103AB00080B2FFF76FFE04E02A4603990298FFF7F1
:103AC00069FE3544ADB2290A0098FFF7FDFDE9B261
:103AD0000198FFF7F9FD05B0BDE8F08F00FCFF038A
:103AE00004282AD870B50646041D2402651C10213E
:103AF0002846FFF7E9FD2846FFF702FE0028FAD125
:103B0000FF21A01CFFF7E0FD0123B340DB431BB204
:103B10000B490A881A400A800A490A8813400B8018
:103B20000023094A22F81630084A9355E01CFFF793
:103B3000E7FD0028FAD1012070BD4FF0FF3070473B
:103B4000B6000020B8000020C0000020BC0000200B
:103B500004287AD82DE9F04182B005460E469046F9
:103B60001F46012904D0002972D005290BD96FE026
:103B700004220DEB02010F20FFF70CFE019B13B98D
:103B80006FF002006FE017F0040F64D177B1012EDF
:103B900002D0022E04D009E017F0210F06D15DE01B
:103BA00017F0200F02D017F0800F5AD02846FFF7E9
:103BB00097FF2C1D240227F00F0131432046FFF709
:103BC00083FDB8F1000F0ED1284AB2F8008008F149
:103BD00001039BB213804FF6F072934203D14FF46E
:103BE0004042224B1A804FEA1821201DFFF76CFD3E
:103BF0005FFA88F1601DFFF767FD661C0121304602
:103C0000FFF762FD3046FFF77BFD0028FAD1012364
:103C1000AB40DB431BB216490A881A4012B207F0C8
:103C20000107AF4017430F8012490A8813400B80E9
:103C30000023114A22F81530104A5355E01CFFF7B3
:103C40005FFD0028FAD068B20DE04FF0FF307047FA
:103C50006FF0040007E06FF0050004E06FF005006E
:103C600001E06FF0050002B0BDE8F081180000200F
:103C7000B6000020B8000020C0000020BC000020DA
:103C8000042828D870B50546041D24022046FFF7F5
:103C900037FD00F00F00012820D1E61C3046FFF769
:103CA0002FFD13281DD1013402212046FFF70CFD02
:103CB0002046FFF725FD0028FAD105E02846FFF74A
:103CC0000FFF6FF0030070BD3046FFF719FD142899
:103CD000F4D1012070BD4FF0FF3070476FF0040049
:103CE00070BD6FF0020070BD042836D870B506466E
:103CF000041D24022046FFF703FD00F00F000128F9
:103D00002ED1651C08212846FFF7DEFC2846FFF768
:103D1000F7FC0028FAD1012303FA06F213490B88B5
:103D200023EA02030B80124B1B88334113F0010F6F
:103D30000CD018E0A01CFFF7E3FC10F0080F05D032
:103D40003046FFF7CDFE6FF00C0070BDE01CFFF7B2
:103D5000D7FC0028EED1012070BD4FF0FF30704736
:103D60006FF0040070BD002070BD00BFB8000020DF
:103D7000B6000020042800F28A802DE9F04715469D
:103D80008A460646804600F104094FEA092948465A
:103D9000FFF7B6FC00F00F0001287BD1002D7DD08D
:103DA00009F103073846FFF7ABFC172801D01C28A0
:103DB00078D1414B1B88334113F0010F1ED009F11C
:103DC00002042046FFF79CFC10F0100F0CD01021CD
:103DD0002046FFF779FC012303FA06F236490B88E7
:103DE00023EA02030B8009E010F0080F5ED0304692
:103DF000FFF776FE6FF00C00BDE8F0871B20FFF7A1
:103E00007FFC74000323A340184040FA04F401230C
:103E100003FA04F4A4B2A402A4B2A54200D82C462A
:103E20003046FFF7E5FC05463846FFF769FC1728E2
:103E300008D01C2806D03046FFF752FE6FF006006F
:103E4000BDE8F0871D4B1B8843FA08F313F0010F00
:103E500001D0AC422DD8AC42E2D822465146304681
:103E6000FFF752FD09F1010920214846FFF72CFC1C
:103E70004846FFF745FC0028FAD1012303FA06F66D
:103E80000D4A13881E4316802046BDE8F0874FF088
:103E9000FF3070476FF00400BDE8F0876FF00D0051
:103EA000BDE8F0876FF00600BDE8F0870020BDE8B0
:103EB000F0870020BDE8F087B8000020B6000020A1
:103EC000042873D82DE9F04F83B0144601910546BC
:103ED0008046061D36023046FFF712FC00F00F0048
:103EE000012866D1002C67D01A20FFF709FC4FEAA1
:103EF000450A4FF0030909FA0AF900EA090040FAF5
:103F00000AFB012303FA0BFB1FFA8BFB4FEA8B2BF7
:103F10001FFA8BFB5C4500D8A3462846FFF790FCB0
:103F20000446F01CFFF7ECFB172821D01C2819D100
:103F300044BB2846FFF75CFC07461B20FFF7E0FB6D
:103F400000EA090040FA0AF0012303FA00F01E4BD0
:103F500003EA802087420BD12846FFF7C1FD6FF0AE
:103F600006002DE02846FFF7BBFD6FF0060027E0B6
:103F7000164B1B8843FA08F313F0010F00D0F4B17D
:103F8000002CCAD0A34500D85C4622460199284699
:103F9000FFF730FD013640213046FFF795FB3046F4
:103FA000FFF7AEFB0028FAD1204609E04FF0FF30C2
:103FB00070476FF0040003E06FF00D0000E0002098
:103FC00003B0BDE8F08F00BF00FCFF03B600002087
:103FD00004287ED870B5154604460A297CD8DFE847
:103FE00001F0060F171F2F38484D525A6D0004304C
:103FF0000002FFF785FB20F00F002870012070BD44
:10400000043000021630FFF77BFB2870012070BDE2
:10401000043000021530FFF773FB2870012070BDDB
:104020000434240204F11200FFF76AFB064604F18F
:104030001300FFF765FB00EB06202880012070BD10
:1040400004300002042229460C30FFF7A3FB0120B4
:1040500070BD0434240204F11000FFF751FB064642
:1040600004F11100FFF74CFB00EB06202880012033
:1040700070BDFFF7BDFB2880012070BDFFF7E0FB9E
:104080002880012070BD043000020330FFF738FBA8
:104090002870012070BD04300002FFF731FB10F0E2
:1040A000010F05D02046FFF7CBFB2880012070BD13
:1040B0000C4B33F814302B80012070BD043000020B
:1040C000FFF71EFB01280AD0074B1B5D2B70012058
:1040D00070BD4FF0FF3070476FF0010070BD6FF0A2
:1040E000040070BDC0000020BC000020704700BF6D
:1040F000704700BF704700BF704700BF007870472F
:104100000170704700207047704700BF00B129B9A7
:10411000044B054A1A61054A5A617047014B186100
:10412000596170471C000020F5400008F940000864
:10413000094B1B8803F400739BB2002BF8D000B12D
:1041400029B9054B054A9A61054ADA617047024B65
:104150009861D961704700BF1C000020054100082C
:104160000941000800B587B0062201A90920FFF720
:1041700011FB042205A90120FFF70CFB042204A96E
:104180000520FFF707FB042203A90F20FFF702FB1E
:1041900080210020FFF798FA0020FFF7B1FA0622ED
:1041A00001A90920FFF7C8FA042205A90120FFF799
:1041B000C3FA042204A90520FFF7BEFA042203A9CA
:1041C0000F20FFF7B9FA07B05DF804FBF8B5044615
:1041D0000D46FFF7C7FF44B92CE0E15C0A4452B238
:1041E000082A59DC01335BB201E000221346032B9D
:1041F000F3DD00261CE001335BB200E00023A25D8A
:104200001F4642FA03F1012901D0002AF3D11B20F5
:10421000FFF776FA710003238B408F4020EA0300FA
:1042200040EA0701C9B21B20FFF74EFA013676B209
:10423000032EE3DD4DB90020F8BDE95C0A4452B21B
:10424000082A2CDC01335BB201E000221346032B69
:10425000F3DD00261CE001335BB200E00023AA5D21
:104260001F461A41012A02D0A25D002AF3D11A206A
:10427000FFF746FA710003238B408F4020EA0300CA
:1042800040EA0701C9B21A20FFF71EFA013676B2DA
:10429000032EE3DD0020F8BD4FF0FF30F8BD4FF0F6
:1042A000FF30F8BD10B50446062201460920FFF78D
:1042B00043FA042204F10E010120FFF73DFA042223
:1042C00004F10A010520FFF737FA0422A11D0F208F
:1042D000FFF732FAA27C064B1A70E27C5A70227DFC
:1042E0009A70627DDA70A27D024B1A7010BD00BF19
:1042F000CC000020C800002010B50446062201466C
:104300000920FFF747FA042204F10E010120FFF70C
:1043100041FA042204F10A010520FFF73BFA0422C6
:10432000A11D0F20FFF736FA064B1A78A2745A78AF
:10433000E2749A782275DB786375034B1B78A3755A
:1043400010BD00BFCC000020C8000020014B186841
:10435000704700BFA400002010B5431E0A449142DC
:1043600004D011F8014B03F8014FF8E710BD0244E7
:104370000346934202D003F8011BFAE7704700009E
:1043800038B50546002946D051F8043C0C1F002BD7
:10439000B8BFE41800F0F9F81F4A1368114613B9C2
:1043A0006360146032E0A3420ED92268A0188342F1
:1043B00004BF18685B68636004BF121822600C6059
:1043C00024E0A24203D813465A68002AF9D118689B
:1043D0001918A1420BD12168014458188242196072
:1043E00014D1106852685A60014419600EE002D975
:1043F0000C232B600AE021686018824204BF106819
:104400005268626004BF091821605C602846BDE8FC
:10441000384000F0BBB838BDD400002070B5CD1CCA
:1044200025F0030508350C2D38BF0C25002D064658
:1044300001DBA94202D90C23336046E000F0A5F865
:10444000234B1C681A462146A1B10B685B1B0ED496
:104450000B2B03D90B60CC18CD501EE08C420DBF46
:1044600063684B686360136018BF0C4615E00C4628
:104470004968E9E7174C23681BB9304600F02CF86F
:1044800020602946304600F027F8431C18D0C41C91
:1044900024F00304A0420DD12560304600F076F8E8
:1044A00004F10B00231D20F00700C31A0ED05A425E
:1044B000E25070BD211A304600F00EF80130EBD109
:1044C0000C233360304600F061F8002070BD00BF5F
:1044D000D4000020D000002038B5064C002305464B
:1044E00008462360FEF70AFC431C02D1236803B18F
:1044F0002B6038BDDC0000200EB400B59CB04FF43A
:1045000002711DABADF81410029006906FF00041DF
:104510000A48049107914FF6FF7153F8042BADF848
:1045200016100068019302A900F08AF8029B00228D
:104530001A701CB05DF804EB03B07047A4000020B3
:10454000034611F8012B03F8012B002AF9D170471B
:10455000034613F8012B002AFBD1181A01387047C3
:1045600030B582B1451E013915F8013F11F8014FF0
:10457000A34206D1EC431444E04201D0002BF3D116
:104580001C46181B30BD104630BD704770472DE9E2
:10459000F0478E689E4282460C46914698463ED829
:1045A0008A8912F4906F3AD0256809696F1A656993
:1045B000022305EB450595FBF3F57B1C43449D4227
:1045C00038BF1D4653050FD52946FFF727FF06467E
:1045D00098B13A462169FFF7BFFEA38923F490639F
:1045E00043F08003A38113E02A4600F024FB064633
:1045F00070B921695046FFF7C3FE0C23CAF800309A
:10460000A38943F04003A3814FF0FF30BDE8F0875A
:10461000266165613E44ED1B2660A5604646464521
:1046200028BF464632464946206800F0E9FAA368AA
:104630009B1BA36023681E4426600020BDE8F08712
:104640002DE9F04F9DB0804603938B891C060D46E3
:1046500016460DD50B695BB94021FFF7DFFE2860D8
:10466000286118B90C23C8F80030CDE040236B61F5
:104670000023099320238DF82930DFF89CB13023E3
:104680008DF82A3037463C4614F8013B1BB9B7EB8E
:10469000060910D003E0252BF9D02746F3E74B4657
:1046A000324629464046FFF772FF013000F0A780EE
:1046B000099B4B4409933B78002B00F0A08000231A
:1046C0004FF0FF3204930793059206938DF8533011
:1046D0001A930126052221784E4800F041FA671C02
:1046E000049B38B14B4A801A06FA00F01843049034
:1046F0003C46EFE7D90644BF20228DF853201A0725
:1047000044BF2B228DF8532022782A2A03D0079AFF
:1047100000210A200BE0039A111D12680391002A60
:1047200010DA524243F00200079204900BE0274651
:1047300001343B78303B092B03D800FB02320121C6
:10474000F5E701B107923B782E2B1ED17B782A2BFF
:104750000AD1039B1A1D1B680392002BB8BF4FF0B0
:10476000FF330237059310E000230593781C1946A8
:104770000A24074601303A78303A092A03D804FB64
:1047800001210123F5E703B105910322397822487D
:1047900000F0E6F940B14023CBEB000003FA00F053
:1047A000049B18430490013739781C488DF8281071
:1047B00006227E1C00F0D4F988B1194B33B9039B53
:1047C000073323F007030833039314E003AB00938C
:1047D0002A46144B04A94046AFF3008007E003AB20
:1047E00000932A460F4B04A9404600F093F8B0F11D
:1047F000FF3F824603D0099B5344099342E7AB89AC
:104800005B0601D4099801E04FF0FF301DB0BDE810
:10481000F08F00BF90500008965000089A50000892
:10482000000000008F4500082DE9F04791461F4623
:104830000A698B68DDF820809342B8BF1346C9F837
:10484000003091F8432006460C4612B10133C9F8F6
:1048500000302368990642BFD9F800300233C9F806
:104860000030256815F0060510D104F1190A07E09B
:104870000123524639463046C04701301AD001352F
:10488000E368D9F800209B1A9D42F1DB94F843308D
:104890002268003318BF012392060FD5E1185A1C75
:1048A000302081F84300224494F8451082F84310E8
:1048B000023303E04FF0FF30BDE8F08704F143021C
:1048C00039463046C0470130F4D02268D9F800504C
:1048D000E36802F00602042A08BF5D1B2269A36890
:1048E0000CBF25EAE57500259342C4BF9B1AED185D
:1048F0004FF000091A344D4509D0012322463946AC
:104900003046C0470130D5D009F10109F3E7002056
:10491000BDE8F0872DE9F04317460A7E85B06E2A80
:10492000984606460C460C9B01F1430E00F0AE8003
:1049300011D8632A22D009D8002A00F0BB80582A57
:1049400040F0CA8081F84520834955E0642A1ED092
:10495000692A1CD0C0E0732A00F0B08009D86F2A01
:104960002ED0702A40F0B8800A6842F020020A6017
:104970003EE0752A24D0782A3AD0ADE01A6801F1D9
:104980004205111D1960136884F84230A8E02168BF
:104990001A6811F0800F02D0111D196008E011F0A3
:1049A000400F02F10401196002D0B2F9003000E0BA
:1049B0001368002B3CDA2D225B4284F8432037E059
:1049C00021681A6811F0800F02D0111D196007E0EC
:1049D00011F0400F02F10401196001D0138800E0CA
:1049E0001368227E5C496F2A14BF0A2208221BE04A
:1049F00078225A4984F845202268186812F0800FFE
:104A000000F104051D6003D1550601D5038800E0BF
:104A10000368D00744BF42F0200222601BB922681D
:104A200022F0200222601022002084F8430001E0DE
:104A300049490A226568A560002D08DB206820F03E
:104A4000040020602BB9002D7DD175460CE0002BB1
:104A500079D07546B3FBF2F002FB1033CB5C05F85E
:104A6000013D03460028F5D1082A0BD12368DA0757
:104A700008D5236962689A42DEBF302305F8013CFD
:104A800005F1FF35C5EB0E0323612EE008681A68B7
:104A9000496910F0800F03D0101D1860136808E0FA
:104AA00010F0400F02F104001860136801D0198063
:104AB00000E0196000232361754616E01A68111D95
:104AC0001960156862680021284600F049F808B1AD
:104AD000401B6060636804E004F1420584F84220F2
:104AE00001232361002384F84330CDF800803B4646
:104AF00003AA21463046FFF797FE013002D14FF05E
:104B0000FF3026E023692A4639463046C047013047
:104B1000F5D023689B0710D5002504F1190907E09B
:104B200001234A4639463046C0470130E7D00135B7
:104B3000E368039A9B1A9D42F2DBE068039B98426C
:104B4000B8BF184605E00B7884F8423004F14205FE
:104B50008AE705B0BDE8F083A1500008B250000814
:104B600001F0FF01102A2BDB10F0070F08D010F81E
:104B7000013B013A8B422DD010F0070F42B3F6D122
:104B8000F0B441EA012141EA014122F007047FF03B
:104B900000070023F0E80256083C85EA010586EA92
:104BA000010685FA47F5A3FA87F586FA47F6A5FACE
:104BB00087F68EB9EED1F0BC01F0FF0102F00702DA
:104BC00032B110F8013B013A83EA010313B1F8D185
:104BD0000020704701387047002D06BF3546033866
:104BE000073815F0010F07D1013015F4807F02BF9F
:104BF000013015F4C03F0130F0BC0138704700BFF0
:104C0000884210B501EB020301D8421E0BE0984226
:104C1000FBD28118D21AD34204D013F8014D01F807
:104C2000014DF8E710BD994204D011F8014B02F88C
:104C3000014FF8E710BDF8B5074615460E4621B9F5
:104C40001146BDE8F840FFF7E9BB1AB9FFF798FB3A
:104C50002846F8BD00F015F885420ED92946384699
:104C6000FFF7DCFB044650B131462A46FFF774FBE0
:104C700031463846FFF784FB01E03046F8BD204658
:104C8000F8BD51F8040C0028BEBF091851F8043CC7
:104C9000C0180438704700002E2E2F737973746586
:104CA0006D2F7372632F73746D3332663378782F80
:104CB00073746D3332663378785F68616C5F636FED
:104CC000727465782E6300002E2E2F7379737465CD
:104CD0006D2F7372632F73746D3332663378782F50
:104CE00073746D3332663378785F68616C5F6770B8
:104CF000696F2E63000000002E2E2F737973746588
:104D00006D2F7372632F73746D3332663378782F1F
:104D100073746D3332663378785F68616C5F6932C3
:104D2000632E63002E2E2F73797374656D2F73724B
:104D3000632F73746D3332663378782F73746D33E9
:104D400032663378785F68616C5F6932635F65787B
:104D50002E6300002E2E2F73797374656D2F73727E
:104D6000632F73746D3332663378782F73746D33B9
:104D700032663378785F68616C5F7063642E6300BD
:104D80002E2E2F73797374656D2F7372632F737466
:104D90006D3332663378782F73746D3332663378BF
:104DA000785F68616C5F7263632E630001020304C5
:104DB00005060708090A0B0C0D0E0F100203040567
:104DC000060708090A0B0C0D0E0F10102E2E2F735C
:104DD000797374656D2F7372632F73746D333266DC
:104DE0003378782F73746D3332663378785F686107
:104DF0006C5F7263635F65782E6300002E2E2F73E5
:104E0000797374656D2F7372632F73746D333266AB
:104E10003378782F73746D3332663378785F6861D6
:104E20006C5F7370692E63002E2E2F737973746517
:104E30006D2F7372632F73746D3332663378782FEE
:104E400073746D3332663378785F68616C5F756157
:104E500072742E63000000000000000000000000DB
:104E60000102030406070809000000000102030410
:104E7000020202022B2B00003D3D3D3D3D3D3D3DEC
:104E80003D3D3D3D3D3D3D3D3D3D3D3D3D3D3D3D52
:104E90003D3D3D3D3D3D3D3D3D3D3D3D3D3D3D3D42
:104EA0003D3D3D3D3D0D0A002009094E6574776F7B
:104EB000726B20436F6E66696775726174696F6E9D
:104EC0000A0D312D6D6F6469667920495020616447
:104ED00064726573730A0D322D6D6F646966792093
:104EE0005375626E6574206D61736B0A0D332D6DA1
:104EF0006F646966792047617465776179206164C0
:104F000064726573730A0D000D0A506C65617365F8
:104F100020656E7465722049502061646472657307
:104F20007320616E6420707265737320456E7465C2
:104F300072200A0D000000006E65772061646472C3
:104F4000657373204950203A25730D0A0000000054
:104F50000D0A506C6561736520656E74657220532F
:104F600075626E6574204D61736B200A0D00000040
:104F700057656C636F6D6520746F2053544D3332E9
:104F80004E75636C656F2045746865726E6574203C
:104F9000636F6E66696775726174696F6E0D0A0082
:104FA00069703A2025642E25642E25642E25640D13
:104FB0000A00000074696D652073696E6365206284
:104FC0006F6F74206973203A20256C75206D730A09
:104FD00077616661203A22280A000000536F6D65F0
:104FE0007468696E672077656E742077726F6E677C
:104FF0003B2072657475726E2076616C75653A201F
:1050000025640D0A00000000536F6D657468696EB9
:10501000672077656E742077726F6E673B205354FC
:10502000415455533A2025640D0A00004C44350084
:105030000000000000000000000000000000000070
:105040000000000000000000000000000000000060
:105050000000000000000000000000000000000050
:105060000000000000000000000000000000000040
:105070000000000000000000000000000000000030
:105080000000000000000000000000000000000020
:10509000232D302B2000686C4C0065666745464721
:1050A00000303132333435363738394142434445A4
:1050B0004600303132333435363738396162636413
:0350C00065660022
:1050C400785634121000000001FFFFFFB4000020E6
:1050D4000000000000127A0000C0FFFF00025735F4
:1050E40031303000ED400008F1400008F540000880
:1050F400F9400008FD4000080141000800000000DC
:10510400000000000000000030500008505000086B
:1051140070500008000000000000000000000000C3
:10512400000000000000000000000000000000007B
:10513400000000000000000000000000000000006B
:10514400000000000000000000000000000000005B
:10515400000000000000000000000000000000004B
:0C51640000000000440000203254769847
:040000050800018965
:00000001FF
