:020000040800F2
:1000000000A00020B90200081537000819370008C1
:100010001D370008213700082537000800000000C0
:100020000000000000000000000000002937000868
:100030002D37000800000000313700083537000870
:10004000012F0008012F0008012F0008012F0008D0
:10005000012F0008012F0008012F0008012F0008C0
:10006000012F0008012F0008012F0008012F0008B0
:10007000012F0008012F0008012F0008012F0008A0
:10008000012F0008012F0008012F0008012F000890
:10009000012F0008012F0008012F0008012F000880
:1000A000012F0008012F0008012F0008012F000870
:1000B000012F0008012F0008012F0008012F000860
:1000C000012F0008012F0008012F0008012F000850
:1000D000012F0008012F0008012F0008012F000840
:1000E000012F0008012F0008012F0008012F000830
:1000F000012F0008012F0008012F0008012F000820
:10010000000000000000000000000000012F0008B7
:10011000012F0008012F0008012F0008012F0008FF
:10012000012F0008012F0008012F0008012F0008EF
:10013000012F0008012F000800000000000000004F
:10014000012F0008012F0008012F00080000000007
:10015000000000000000000000000000000000009F
:100160000000000000000000012F0008012F00081F
:10017000012F000800000000000000000000000047
:1001800000000000012F000800B583B002F020FE3F
:10019000384B394A1360394A136039490CE00A6810
:1001A0004B6801F10C04886803E01168196004339E
:1001B00004329842F9D82146324B9942EFD32E4B64
:1001C0001A68314B9A4204D12C4B1A682F4B9A4231
:1001D00000D0FEE7274B2E4A13602E4A13602E4BA9
:1001E0000AE0194651F8082B5B6802E00020106015
:1001F00004329A42FAD30B46284A9342F1D3244B55
:100200001B6813B9234B1B6803B1FEE702F0ECFD3A
:1002100001A8694602F072FD214C224B1C1BA41060
:10022000002504E01E4B53F8253098470135AC42B9
:10023000F8DC1D4C1D4B1C1BA410002504E01A4BC0
:1002400053F8253098470135AC42F8DC0198009905
:1002500003F050F80546164C164B1C1BA41004E086
:10026000013C134B53F824309847002CF8DC284607
:1002700002F020FDBABADECA00000020A80000206B
:10028000E8030008000400087856341232547698C7
:10029000AC0000200407002000040008100400083F
:1002A00010040008100400081004000810040008DE
:1002B000100400081004000808B5FFF765FF00BF30
:1002C00000BEFEE71EF0040F0CBFEFF30880EFF353
:1002D00009807146414A10472DE9F04182B0044639
:1002E0008846134B5E6B9D6B9F6A1B6B13F0020F6E
:1002F0000DD00F4BDB6A002B09DA4BF6AB6102F035
:10030000EFFD20B14FF00042094BDA620CE00948E2
:1003100002F0FCFCCDF800802046394632462B46E0
:1003200002F066FD00BEFEE702B0BDE8F08100BF4E
:1003300000ED00E0A84F000800BEFEE71EF0040F2D
:100340000CBFEFF30880EFF309807146244A104791
:100350002DE9F04182B007468846084B5D6B9C6BE7
:100360009E6A074802F0D2FCCDF80080384631463C
:100370002A46234602F03CFD00BEFEE700ED00E009
:10038000B84F00081EF0040F0CBFEFF30880EFF326
:1003900009807146134A10472DE9F04182B00746A3
:1003A0008846084B5D6B9C6B9E6A074802F0AEFC6A
:1003B000CDF80080384631462A46234602F018FD23
:1003C00000BEFEE700ED00E0C44F000800BEFEE7FF
:1003D00000BEFEE700BEFEE770470000D90200083D
:0803E000510300089903000815
:1003E800A851000800000020AC000020A851000817
:1003F8000000001000000010AC00002008070020DA
:080408000000001000000010CC
:1004100010B504460E4B18784FF47A73B3FBF0F323
:100420000C4A1068B0FBF3F000F0B0F858B90F2C8C
:100430000BD84FF0FF302146002200F065F8064B44
:100440001C60002010BD012010BD012010BD00BFA8
:1004500008000020140000200400002008B5074A0E
:10046000136843F010031360032000F02FF80020FE
:10047000FFF7CEFF03F06AF8002008BD002002401D
:10048000034A1368034909780B441360704700BF9F
:100490005801002008000020014B1868704700BF79
:1004A0005801002038B50446FFF7F6FF0546B4F1C1
:1004B000FF3F02D0044B1B781C44FFF7EDFF401BAD
:1004C0008442FAD838BD00BF0800002010B50446A9
:1004D000C31E042B03D90A48BC2103F035F804F0ED
:1004E0000700084AD36823F4E0631B041B0C43EAAB
:1004F000002040F0BF6040F40030D06010BD00BF6D
:10050000A04C000800ED00E070B504460E4615460C
:100510000F2A03D91A48D42103F016F80F2E03D955
:100520001748D52103F010F8164BDB68C3F30223FC
:10053000C3F10702042A28BF0422191D062901D984
:10054000D81E00E00020012303FA02F2013A3240F3
:1005500002FA00F183405A1E2A400A43002C06DAB0
:1005600004F00F041201D2B2074B1A5570BD1201EC
:10057000D2B204F1604404F5614484F8002370BDF4
:10058000A04C000800ED00E014ED00E00138B0F1EF
:10059000807F0AD2064B5860F021064A82F8231069
:1005A0000020986007221A6070470120704700BF42
:1005B00010E000E000ED00E02DE9F04F83B00646CA
:1005C0000D46B0F1904F16D0A54B984213D003F5CD
:1005D000806398420FD003F5806398420BD003F5F7
:1005E0008063984207D003F58063984203D09D480A
:1005F000C32102F0A9FF2B689AB212B11B0C1B0495
:100600001BB19848C42102F09FFF6B68012B22D9CF
:10061000112B20D0022B1ED0122B1CD0924A9342B9
:1006200019D002F58012934215D002F58012934240
:1006300011D0A2F5F81293420DD002F58012934228
:1006400009D002F58012934205D0032B03D08548D0
:10065000C52102F079FFAB68022B03D98148C6217E
:1006600002F072FF0024F1E04FF0010808FA04F8EC
:1006700013EA080700F0E9806B68022B01D0122B07
:1006800037D1B6F1904F16D0754B9E4213D003F57B
:1006900080639E420FD003F580639E420BD003F52A
:1006A00080639E4207D003F580639E4203D06D486D
:1006B000D52102F049FF2B690C2B07D90E2B05D051
:1006C0000F2B03D06748D62102F03EFFE008083028
:1006D00056F8201004F0070E4FEA8E0E0F2303FA8F
:1006E0000EF321EA03022B6903FA0EF3134346F8D3
:1006F000203033684FEA440B4FF0030909FA0BF935
:100700006FEA090909EA03026B6803F0030303FABD
:100710000BF3134333606B685A1E012A03D9112B64
:1007200001D0122B1BD1EB68012B05D9032B03D071
:100730004C48EA2102F008FFB36809EA0302EB68BB
:1007400003FA0BF31343B360736823EA08086B687A
:10075000C3F3001303FA0AF343EA08037360F36870
:1007600009EA0309AB6803FA0BF343EA0903F360F0
:100770006B6813F0805F68D03C4B9A6942F00102CD
:100780009A619B6903F001030193019BA008821CFD
:10079000374B53F8221004F0030E4FEA8E0E0F234E
:1007A00003FA0EF321EA0302B6F1904F18D02C4B56
:1007B0009E4213D003F580639E420DD003F5806303
:1007C0009E4207D003F580639E4201D1042308E0D6
:1007D000052306E0032304E0022302E0012300E0F6
:1007E000002303FA0EF313430230214A42F820306B
:1007F000204B1A68FB4303EA0201686810F4803F4B
:1008000001D047EA02011B4A1160526803EA020163
:10081000686810F4003F01D047EA0201154A5160B0
:10082000926803EA0201686810F4801F01D047EA69
:100830000201104A9160D2681340696811F4001FE8
:1008400001D047EA02030B4AD36001342B68A24669
:1008500033FA04F27FF408AF03B0BDE8F08F00BFB5
:1008600000040048D04C00080000111000100240A5
:10087000000001400004014070B5054614460E46D4
:1008800021B908484FF4D87102F05EFE012C04D95A
:10089000044840F2B11102F057FE0CB1AE6170BDD8
:1008A000AE6270BDD04C000838B505460C4621B983
:1008B00004484FF4E37102F047FE6B695C406C61E1
:1008C00038BD00BFD04C0008002800F0A88010B54B
:1008D00004460368534A934208D002F5806293426B
:1008E00004D0514840F2A31102F02EFEA368B3F5E4
:1008F000806F04D34C484FF4D27102F025FEE368B8
:10090000013B012B04D9484840F2A51102F01CFE1E
:1009100023693BB1B3F5004F04D043484FF4D37182
:1009200002F012FE6369FF2B04D93F4840F2A71181
:1009300002F00AFEA369072B04D93B484FF4D47197
:1009400002F002FEE3693BB1B3F5002F04D0364854
:1009500040F2A91102F0F8FD236A3BB1B3F5003F64
:1009600004D031484FF4D57102F0EEFD94F84130D7
:1009700013F0FF0F05D1002384F84030204602F029
:1009800003FE242384F841302268136823F0010316
:1009900013602268636823F07063136122689368B0
:1009A00023F400439360E368012B05D12268A36818
:1009B00043F40043936004E02268A36843F40443D3
:1009C0009360E368022B03D123684FF400625A60FE
:1009D0002268536843F0007343F400435360226875
:1009E000D36823F40043D3602268216963690B4311
:1009F000A16943EA0123D3602268E169236A0B43BA
:100A000013602268136843F00103136000206064E0
:100A1000202384F84130206384F8420010BD012077
:100A2000704700BF00540040004D000838B5044630
:100A30000D4603681F4A934207D002F58062934235
:100A400003D01D48742102F07FFD35B1B5F5805FFC
:100A500003D01948752102F077FD94F84130DBB2DC
:100A6000202B23D194F84030012B21D0012384F88E
:100A70004030242384F841302268136823F00103B6
:100A800013602268136823F48053136023681A6884
:100A900015431D602268136843F00103136020238F
:100AA00084F84130002084F8400038BD022038BD71
:100AB000022038BD005400402C4D000838B50446D3
:100AC0000D4603681D4A934207D002F580629342A7
:100AD00003D01B48A22102F037FD0F2D03D918487F
:100AE000A32102F031FD94F84130DBB2202B21D15B
:100AF00094F84030012B1FD0012384F84030242388
:100B000084F841302268136823F0010313602268DF
:100B1000136823F4706343EA05251560226813689F
:100B200043F001031360202384F84130002084F84F
:100B3000400038BD022038BD022038BD00540040BE
:100B40002C4D000800285AD038B5044602682D4BB9
:100B50009A4203D02C48972102F0F6FC94F87133A6
:100B600013F0FF0F05D1002384F87033204602F004
:100B70009DFD032384F8713300220FE0D3009B1AFC
:100B80009B002344012183F8291083F828200021A9
:100B900083F82B1059639963D963013265689542D4
:100BA000ECD8002211E0D3009B1A9B0023440021C3
:100BB00083F8CD1183F8CC2183F8CF11C3F8D81175
:100BC000C3F8DC11C3F8E0110132AA42EBD322686A
:100BD0000123A2F8403022680020A2F840002268D9
:100BE000A2F844002268A2F8500022684FF43F4166
:100BF000A2F8401084F8240084F8713338BD012035
:100C0000704700BF005C00405C4D0008002800F009
:100C10006F8370B582B0044603683BB113F00F0FC9
:100C200004D1BA4840F2571102F08EFC236813F049
:100C3000010F00F0AA80636853B1B3F5803F07D07D
:100C4000B3F5A02F04D0B14840F25D1102F07CFC56
:100C5000AF4B5B6803F00C03042B0AD0AC4B5B6812
:100C600003F00C03082B1BD1A94B5B6813F4803FE6
:100C700016D04FF4003393FAA3F3A54B19684FF441
:100C8000003393FAA3F3B3FA83F303F01F030122B3
:100C900002FA03F3194278D06368002B75D129E377
:100CA0006368B3F5803F05D1994A136843F48033F4
:100CB000136026E063B903F1804303F504331A6837
:100CC00022F480321A601A6822F480221A6018E036
:100CD000B3F5A02F0CD103F18043A3F53C331A6880
:100CE00042F480221A601A6842F480321A6008E0E6
:100CF000874B1A6822F480321A601A6822F4802224
:100D00001A608349CB6A23F00F02A3681343CB62B6
:100D10006368EBB1FFF7C0FB054605E0FFF7BCFBDE
:100D2000401B642800F2E8824FF4003393FAA3F3E7
:100D3000774B19684FF4003393FAA3F3B3FA83F3B4
:100D400003F01F03012202FA03F31942E6D01CE06C
:100D5000FFF7A2FB054605E0FFF79EFB401B64285A
:100D600000F2CC824FF4003393FAA3F3684B196876
:100D70004FF4003393FAA3F3B3FA83F303F01F03A2
:100D8000012202FA03F31942E6D1236813F0020F9D
:100D900000F0A0802369012B04D95C4840F2951132
:100DA00002F0D2FB63691F2B04D958484FF4CB7172
:100DB00002F0CAFB564B5B6813F00C0F0AD0544B81
:100DC0005B6803F00C03082B27D1514B5B6813F4CD
:100DD000803F22D1022393FAA3F34D4B19680223DB
:100DE00093FAA3F3B3FA83F303F01F03012202FA89
:100DF00003F3194203D02369934240F081824448AF
:100E0000036823F0F8016369F82292FAA2F2B2FAB9
:100E100082F293400B4303605CE023699BB30122A1
:100E200092FAA2F3B3FA83F303F1845303F5841324
:100E30009B001A60FFF730FB054605E0FFF72CFB2F
:100E4000401B022800F25E82022393FAA3F3304B88
:100E50001968022393FAA3F3B3FA83F303F01F0391
:100E6000012202FA03F31942E8D02948036823F06B
:100E7000F8016369F82292FAA2F2B2FA82F2934080
:100E80000B43036026E0012393FAA3F3B3FA83F341
:100E900003F1845303F584139B0000221A60FFF7CB
:100EA000FBFA054605E0FFF7F7FA401B022800F2BF
:100EB0002B82022393FAA3F3154B1968022393FAAA
:100EC000A3F3B3FA83F303F01F03012202FA03F33F
:100ED0001942E8D1236813F0080F60D0A369012BF1
:100EE00004D90A484FF4EB7102F02EFBA36973B3E7
:100EF000012191FAA1F2B2FA82F2064B13449B004F
:100F00001960FFF7C9FA05460CE000BF884D0008DC
:100F10000010024020819010FFF7BEFA401B02280B
:100F200000F2F481022393FAA3F293FAA3F293FA64
:100F3000A3F2AF4A516A93FAA3F3B3FA83F303F02F
:100F40001F03012202FA03F31942E5D027E0012230
:100F500092FAA2F2B2FA82F2A64B13449B0000224C
:100F60001A60FFF799FA054605E0FFF795FA401B6E
:100F7000022800F2CD81022393FAA3F293FAA3F29E
:100F800093FAA3F29A4A516A93FAA3F3B3FA83F35A
:100F900003F01F03012202FA03F31942E5D123688B
:100FA00013F0040F00F0C280E368012B06D9052B73
:100FB00004D0914840F2022102F0C6FA8C4BDB6962
:100FC00013F0805F0BD18A4BDA6942F08052DA610C
:100FD000DB6903F080530193019B012500E00025AC
:100FE000864B1B6813F4807F13D1844A136843F443
:100FF00080731360FFF750FA064605E0FFF74CFADE
:10100000801B642800F286817C4B1B6813F4807F70
:10101000F4D0E368012B05D1754A136A43F001034C
:10102000136222E063B903F1804303F504331A6AC3
:1010300022F001021A621A6A22F004021A6214E013
:10104000052B09D16A4B1A6A42F004021A621A6A25
:1010500042F001021A6208E0654B1A6A22F00102AE
:101060001A621A6A22F004021A62E36863B3FFF795
:1010700013FA064607E0FFF70FFA801B41F28833A8
:10108000984200F24981022393FAA3F293FAA3F360
:10109000B3FA83F343F040035B09022B02D1544BB4
:1010A000196A04E0022393FAA3F3514B596A02230D
:1010B00093FAA3F3B3FA83F303F01F03012202FAB6
:1010C00003F31942D7D02BE0FFF7E6F9064607E015
:1010D000FFF7E2F9801B41F28833984200F21E814B
:1010E000022393FAA3F293FAA3F3B3FA83F343F040
:1010F00040035B09022B02D13D4B196A04E0022335
:1011000093FAA3F33A4B596A022393FAA3F3B3FA7F
:1011100083F303F01F03012202FA03F31942D7D12C
:1011200025B1334AD36923F08053D361E369022B9D
:1011300004D9314840F2462102F006FAE369002B57
:1011400000F0EE802A4A526802F00C02082A00F0F1
:10115000E980022B40F0A180236A3BB1B3F5803FC8
:1011600004D0254840F24F2102F0EEF9636A73B3D0
:10117000B3F5802F2BD0B3F5002F28D0B3F5402F37
:1011800025D0B3F5801F22D0B3F5A01F1FD0B3F533
:10119000C01F1CD0B3F5E01F19D0B3F5001F16D047
:1011A000B3F5101F13D0B3F5201F10D0B3F5301FC7
:1011B0000DD0B3F5401F0AD0B3F5501F07D0B3F5DB
:1011C000601F04D00C484FF4147102F0BDF94FF0C9
:1011D000807393FAA3F3B3FA83F303F1845303F513
:1011E00084139B0000221A60FFF756F905460DE0B4
:1011F0000010024020819010884D000800700040CF
:10120000FFF74AF9401B022800F28E804FF000736E
:1012100093FAA3F3484B19684FF0007393FAA3F3C2
:10122000B3FA83F303F01F03012202FA03F3194216
:10123000E6D14148436823F47411636A226A134378
:101240000B4343604FF0807393FAA3F3B3FA83F335
:1012500003F1845303F584139B0001221A60FFF706
:101260001BF9044604E0FFF717F9001B02285DD8BC
:101270004FF0007393FAA3F32F4B19684FF00073EC
:1012800093FAA3F3B3FA83F303F01F03012202FAE4
:1012900003F31942E7D000204BE04FF0807393FA3C
:1012A000A3F3B3FA83F303F1845303F584139B0090
:1012B00000221A60FFF7F0F8044604E0FFF7ECF8AC
:1012C000001B022834D84FF0007393FAA3F31A4B93
:1012D00019684FF0007393FAA3F3B3FA83F303F0A2
:1012E0001F03012202FA03F31942E7D1002020E094
:1012F0000120704701201CE003201AE0032018E0C1
:10130000012016E0032014E0032012E0032010E087
:1013100003200EE003200CE003200AE0032008E095
:10132000002006E0012004E0032002E0032000E0AA
:10133000032002B070BD00BF00100240164B5A6877
:1013400002F00C03082B24D102F470114FF4701337
:1013500093FAA3F3B3FA83F321FA03F30F49CB5CB7
:101360000D49C96A01F00F010F2090FAA0F0B0FA00
:1013700080F0C1400A48405C12F4803F05D0094A21
:10138000B2FBF0F003FB00F07047074800FB03F0EE
:1013900070470448704700BF00100240C44D000869
:1013A000B44D000800127A0000093D00002800F04A
:1013B0000F8170B504460D46036813F00F0F04D17A
:1013C0008A4840F2BA2102F0BFF8022D04D98748BA
:1013D00040F2BB2102F0B8F8854B1B6803F007030D
:1013E000AB420BD2824A136823F007032B431360EE
:1013F000136803F00703AB4240F0EC80236813F05E
:10140000020F1DD0A368A3B1802B12D0902B10D057
:10141000A02B0ED0B02B0CD0C02B0AD0D02B08D0D4
:10142000E02B06D0F02B04D0704840F2D22102F01D
:101430008BF870494B6823F0F002A36813434B60AC
:10144000236813F0010F5FD06368022B04D967484B
:1014500040F2D92102F078F86268012A13D14FF4E2
:10146000003393FAA3F3634B18684FF4003393FAF5
:10147000A3F3B3FA83F303F01F03012101FA03F38B
:10148000184228D1A8E0022A13D14FF0007393FA32
:10149000A3F3584B18684FF0007393FAA3F3B3FA11
:1014A00083F303F01F03012101FA03F3184212D161
:1014B00094E0022393FAA3F34E4B1868022393FAA5
:1014C000A3F3B3FA83F303F01F03012101FA03F33B
:1014D000184200F0858047494B6823F0030313430B
:1014E0004B60FEF7D9FF064606E0FEF7D5FF801BEE
:1014F00041F28833984275D83E4B5B6803F00C0389
:101500006268B3EB820FF0D1394B1B6803F007031D
:10151000AB420AD9364A136823F007032B43136002
:10152000136803F00703AB425ED1236813F0040F86
:1015300019D0E36883B1B3F5806F0DD0B3F5A06F18
:101540000AD0B3F5C06F07D0B3F5E06F04D02748D9
:1015500040F2153101F0F8FF26494B6823F4E062B0
:10156000E36813434B60236813F0080F1AD0236914
:1015700083B1B3F5806F0DD0B3F5A06F0AD0B3F58A
:10158000C06F07D0B3F5E06F04D018484FF447712F
:1015900001F0DAFF174A536823F46053216943EAE4
:1015A000C1035360FFF7CAFE124B5B6803F0F00300
:1015B000F02292FAA2F2B2FA82F2D3400E4AD35C3F
:1015C000D8400E4B18600020FEF722FF002070BDAF
:1015D00001207047012070BD012070BD012070BD49
:1015E000012070BD032070BD012070BD884D000832
:1015F0000020024000100240D44F000814000020D8
:10160000014B1868704700BF1400002008B5FFF7B1
:10161000F7FF074B5B6803F4E0634FF4E06292FA74
:10162000A2F2B2FA82F2D340024AD35CD84008BD9B
:1016300000100240E44F000808B5FFF7E1FF074B38
:101640005B6803F460534FF4605292FAA2F2B2FA6C
:1016500082F2D340024AD35CD84008BD0010024059
:10166000E44F0008F0B583B004460368B3F54D3F7E
:1016700003D342487D2101F067FF236813F4803FC4
:1016800000F0A180636863B1B3F5807F09D0B3F542
:10169000007F06D0B3F5407F03D03848832101F0A6
:1016A00053FF374BDB6913F0805F0BD1344BDA69A2
:1016B00042F08052DA61DB6903F080530193019BB1
:1016C000012500E000252F4B1B6813F4807F13D108
:1016D0002C4A136843F480731360FEF7DDFE064660
:1016E00005E0FEF7D9FE801B642800F2D681254B69
:1016F0001B6813F4807FF4D0214B1B6A13F44073F2
:1017000055D0626802F440729A4250D01C4E306A42
:1017100020F440774FF4803191FAA1F3B3FA83F3C8
:10172000194A13449B004FF0010EC3F800E091FAF0
:10173000A1F1B1FA81F10A449200002313603762EB
:1017400010F0010F33D0FEF7A7FE064607E0FEF7C4
:10175000A3FE801B41F28833984200F2A08102234D
:1017600093FAA3F293FAA3F3B3FA83F343F040039B
:101770005B09022B0AD1024B196A0CE0D44D000818
:10178000001002400070004000819010022393FA84
:10179000A3F3A94B596A022393FAA3F3B3FA83F391
:1017A00003F01F03012202FA03F31942CFD0A2492A
:1017B0000B6A23F44072636813430B621DB1CB695B
:1017C00023F08053CB61236813F0010F0DD0A36881
:1017D000032B03D99948CA2101F0B6FE96490B6B39
:1017E00023F00302A36813430B63236813F0020F73
:1017F00015D0E36863B1B3F5803F09D0B3F5003F7E
:1018000006D0B3F5403F03D08C48D52101F09CFEB3
:1018100089490B6B23F44032E36813430B6323685D
:1018200013F0040F15D0236963B1B3F5802F09D0ED
:10183000B3F5002F06D0B3F5402F03D07F48E12148
:1018400001F082FE7C490B6B23F440222369134391
:101850000B63236813F0200F0ED0E3692BB1102B1C
:1018600003D07648EC2101F06FFE73490B6B23F037
:101870001002E36913430B63236813F4003F0FD096
:10188000A36BB3F5800F04D01BB16C48FA2101F0B3
:101890005BFE69494B6823F48002A36B13434B60E2
:1018A000236813F0400F0FD0236A33B1202B04D0EC
:1018B00062484FF4877101F047FE5F490B6B23F0DC
:1018C0002002236A13430B63236813F0080F16D01A
:1018D00063696BB1B3F5801F0AD0B3F5001F07D061
:1018E000B3F5401F04D0554840F22F1101F02CFEF3
:1018F00051490B6B23F44012636913430B63236854
:1019000013F0100F16D0A3696BB1B3F5800F0AD096
:10191000B3F5000F07D0B3F5400F04D0474840F2AD
:10192000391101F011FE44490B6B23F44002A36905
:1019300013430B63236813F4007F10D0E36A3BB1B9
:10194000B3F5000F04D03D4840F2491101F0FCFD11
:1019500039494B6823F40002E36A13434B60236860
:1019600013F0800F31D0636A43B3B3F5807F25D085
:10197000B3F5887F22D0B3F5907F1FD0B3F5987F61
:101980001CD0B3F5A07F19D0B3F5A87F16D0B3F55E
:10199000B07F13D0B3F5B87F10D0B3F5C07F0DD0B2
:1019A000B3F5C87F0AD0B3F5D07F07D0B3F5D87FA1
:1019B00004D0224840F2691101F0C6FD1E49CB6AED
:1019C00023F4F872636A1343CB62236813F4807FB5
:1019D00037D0A36A43B3B3F5005F25D0B3F5085FF2
:1019E00022D0B3F5105F1FD0B3F5185F1CD0B3F54C
:1019F000205F19D0B3F5285F16D0B3F5305F13D050
:101A0000B3F5385F10D0B3F5405F0DD0B3F5485F44
:101A10000AD0B3F5505F07D0B3F5585F04D007483C
:101A20004FF4BD7101F090FD0349CB6A23F4785265
:101A3000A36A134304E000BF00100240D44D000825
:101A4000CB62236813F4805F10D0236B3BB1B3F5F6
:101A5000807F04D014484FF4CD7101F075FD134917
:101A60000B6B23F48072236B13430B63236813F413
:101A7000005F16D0636B3BB1B3F5007F04D00A481A
:101A80004FF4D67101F060FD08490B6B23F400722E
:101A9000636B13430B63002004E0032002E0032088
:101AA00000E0002003B0F0BDD44D0008001002405B
:101AB000F8B506460C4617461D4634E0B5F1FF3F23
:101AC00031D02DB1FEF7E8FC069BC01AA8422AD3FC
:101AD0003268536823F0E00353607368B3F5827F84
:101AE0000BD1B368B3F5004F02D0B3F5806F04D1CA
:101AF0003268136823F040031360B36AB3F5005FE4
:101B000009D13268136823F40053136032681368F4
:101B100043F400531360012386F85D30002386F8F8
:101B20005C300320F8BD33689B682340A34201D199
:101B3000012300E00023BB42C0D10020F8BD00BF5C
:101B4000F0B583B007460C4615461E463EE0B4F598
:101B5000C06F06D12DB9137BDBB28DF807309DF82D
:101B60000730B6F1FF3F31D02EB1FEF795FC089B50
:101B7000C01AB0422AD33A68536823F0E003536096
:101B80007B68B3F5827F0BD1BB68B3F5004F02D001
:101B9000B3F5806F04D13A68136823F040031360F3
:101BA000BB6AB3F5005F09D13A68136823F40053A8
:101BB00013603A68136843F400531360012387F8F5
:101BC0005D30002387F85C30032005E03A689368B5
:101BD0002340AB42BBD1002003B0F0BD70B582B052
:101BE00004460D46164600924FF4C05100222B4683
:101BF000FFF7A6FF28B1236E43F0200323660323DB
:101C00001CE000962046802100222B46FFF750FF63
:101C100028B1236E43F02003236603230EE00096D1
:101C200020464FF4C06100222B46FFF789FF034690
:101C300020B1236E43F0200323660323184602B02D
:101C400070BD00BF70B582B004460D4616464368AD
:101C5000B3F5827F0BD18368B3F5004F02D0B3F5A3
:101C6000806F04D12268136823F04003136000964C
:101C70002046802100222B46FFF71AFF034628B199
:101C8000236E43F020032366032319E06268B2F554
:101C9000827F15D1A268B2F5004F02D0B2F5806FF5
:101CA0000ED1009620464FF4C06100222B46FFF76C
:101CB00047FF034620B1236E43F02003236603232E
:101CC000184602B070BD00BF002800F0008110B5BA
:101CD000044603687F4A93420CD0A2F578429342AF
:101CE00008D002F58062934204D07B4840F21B1179
:101CF00001F02AFC63683BB1B3F5827F04D07648DB
:101D00004FF48E7101F020FCA36853B1B3F5806FDE
:101D100007D0B3F5004F04D06F4840F21D1101F019
:101D200013FCE368B3F5706F28D0B3F5606F25D06E
:101D3000B3F5506F22D0B3F5406F1FD0B3F5306FBD
:101D40001CD0B3F5206F19D0B3F5106F16D0B3F5D2
:101D5000006F13D0B3F5E06F10D0B3F5C06F0DD0A6
:101D6000B3F5A06F0AD0B3F5806F07D0B3F5407F0D
:101D700004D059484FF48F7101F0E6FBA369B3F525
:101D8000007F08D03BB1B3F5802F04D0524840F219
:101D90001F1101F0D9FB636B082B05D023B14E480E
:101DA0004FF4907101F0D0FBE36993B1082B10D090
:101DB000102B0ED0182B0CD0202B0AD0282B08D09B
:101DC000302B06D0382B04D0434840F2211101F0CB
:101DD000BBFB236A33B1802B04D03F484FF4917191
:101DE00001F0B2FB636A33B1102B04D03A4840F2E1
:101DF000231101F0A9FB636A83B9236933B1022B74
:101E000004D035484FF4937101F09EFB6369012BB8
:101E100004D9314840F2271101F096FB0023A36258
:101E200094F85D3013F0FF0F05D1002384F85C3087
:101E3000204601F0DFFB022384F85D30226813683E
:101E400023F040031360E368B3F5E06F01D900228B
:101E500001E04FF48052B3F5706F04D0B3F5E06F3A
:101E600001D00021A162216B39B9B3F5E06F02D92D
:101E70000223236301E00123236320686168A368D0
:101E800019432369194363691943A36903F4007370
:101E90000B43E1690B43216A0B43A16A19430160BB
:101EA0002068618B01F00401636A1943636B194375
:101EB000E3680B43134343602268D36923F4006350
:101EC000D36100202066012384F85D3010BD01201D
:101ED000704700BF00300140044E00082DE9F0417A
:101EE00082B004460D4690461E4683683BB1B3F56A
:101EF000004F04D06F484FF4FF7101F025FB94F8B8
:101F00005C30012B00F0D280012384F85C30FEF7B6
:101F1000C3FA074694F85D30DBB2012B40F0B08085
:101F2000002D00F0AF80B8F1000F00F0AD8003236A
:101F300084F85D3000232366A563A4F83C80A4F8F0
:101F40003E802364A4F84430A4F846302365E3645B
:101F5000A368B3F5004F04D12268136843F48043AB
:101F6000136023681A6812F0400F03D11A6842F018
:101F700040021A60E368B3F5E06F2AD963681BB1C9
:101F8000E38F9BB2012B1FD1236835F8022BDA6057
:101F9000E38F013B9BB2E38716E023689A6812F057
:101FA000020F07D035F8022BDA60E38F013B9BB2BA
:101FB000E38709E0002E69D0B6F1FF3F04D0FEF7B9
:101FC0006BFAC01BB04263D2E38F9BB2002BE4D10B
:101FD00041E063681BB1E38F9BB2012B37D1E38FE4
:101FE0009BB2012B08D9236835F8022BDA60E38F06
:101FF000023B9BB2E3872AE023682A781A73E38FB7
:10200000013B9BB2E387013521E023689A6812F017
:10201000020F13D0E28F92B2012A07D935F8022BB2
:10202000DA60E38F023B9BB2E38710E02A781A73F1
:10203000E38F013B9BB2E387013508E056B3B6F16D
:10204000FF3F04D0FEF728FAC01BB04224D2E38F32
:102050009BB2002BD9D1204631463A46FFF7BEFD50
:1020600008B120232366A36833B901932368DA6893
:1020700001929B680193019B236E7BB900200EE0C7
:1020800002200CE001200AE0012008E0032006E025
:10209000032004E0032002E0032000E001200123EC
:1020A00084F85D30002384F85C3000E0022002B048
:1020B000BDE8F081044E00082DE9F84304460F46C0
:1020C00016469946089D836823B1A74840F2A1317E
:1020D00001F03AFA94F85C30012B00F050810123B2
:1020E00084F85C30FEF7D8F9804694F85D30DBB2B6
:1020F0006268012B0AD0B2F5827F40F02581A26888
:10210000002A40F02381042B40F02281002F00F0B0
:102110002181002E00F02081B9F1000F00F01E8116
:1021200094F85D30DBB2042B02D0052384F85D30D7
:10213000002323662664A4F84690A4F84490A7637D
:10214000A4F83E90A4F83C90E3642365E368B3F5FB
:10215000E06F04D8B4F846309BB2012B05D9226851
:10216000536823F48053536004E02268536843F4B7
:102170008053536023681A6812F0400F03D11A6825
:1021800042F040021A60E368B3F5E06F4CD963682F
:102190001BB1E38F9BB2012B07D1236837F8022BC9
:1021A000DA60E38F013B9BB2E3874FF0010931E036
:1021B000B9F1000F10D0E38F9BB26BB123689A681E
:1021C00012F0020F08D037F8022BDA60E38F013BE0
:1021D0009BB2E3874FF00009B4F846309BB27BB165
:1021E00023689A6812F0010F0AD0DB6826F8023BD8
:1021F000B4F84630013B9BB2A4F846304FF00109D9
:10220000B5F1FF3F06D0FEF747F9C8EB0000A84242
:1022100080F0A680E38F9BB2002BC9D1B4F8463082
:102220009BB2002BC4D183E063681BB1E38F9BB2E8
:10223000012B14D1E38F9BB2012B08D9236837F807
:10224000022BDA60E38F023B9BB2E38707E023684F
:102250003A781A73E38F013B9BB2E38701374FF063
:1022600001095CE0B9F1000F1ED0E38F9BB2DBB136
:1022700023689A6812F0020F16D0E28F92B2012AF8
:1022800009D937F8022BDA60E38F023B9BB2E38770
:102290004FF0000908E03A781A73E38F013B9BB2D4
:1022A000E38701374FF00009B4F846309BB26BB3B7
:1022B00023689A6812F0010F28D0B4F8462092B231
:1022C000012A15D9DB6826F8023BB4F84630023BF8
:1022D0009BB2A4F84630B4F846309BB2012B13D819
:1022E0002268536843F4805353604FF001090DE0B6
:1022F0001B7B3370B4F84630013B9BB2A4F84630E8
:1023000001364FF0010901E04FF00109B5F1FF3F3F
:1023100005D0FEF7C1F8C8EB0000A84222D2E38F37
:102320009BB2002B9ED1B4F846309BB2002B99D1C2
:10233000204629464246FFF751FC08B12023236678
:10234000236E9BB9002012E0022010E002200EE074
:1023500002200CE001200AE0012008E0012006E054
:10236000032004E0032002E0044E000801200123C2
:1023700084F85D30002384F85C30BDE8F8830220E7
:10238000BDE8F8832DE9F04182B004460E46904640
:102390001D464368B3F5827F0AD1836843B904239D
:1023A00080F85D30009532464346FFF785FEABE08E
:1023B00094F85C30012B00F0A680012384F85C3097
:1023C000FEF76AF8074694F85D30DBB2012B40F067
:1023D0008480002E00F08380B8F1000F00F081802F
:1023E000042384F85D30002323662664A4F8448027
:1023F000A4F84680A363A387E387E3642365E368C7
:10240000B3F5E06F05D92268536823F48053536015
:1024100004E02268536843F480535360A368B3F523
:10242000004F04D12268136823F4804313602368AB
:102430001A6812F0400F03D11A6842F040021A6085
:10244000E368B3F5E06F19D936E023689A6812F0B3
:10245000010F09D01B7B06F8013BB4F84630013B65
:102460009BB2A4F8463009E0002D3CD0B5F1FF3F07
:1024700004D0FEF711F8C01BA84236D2B4F846309B
:102480009BB2002BE1D11CE023689A6812F0010F87
:1024900009D0DB6826F8023BB4F84630013B9BB21A
:1024A000A4F8463008E015B3B5F1FF3F04D0FDF7BE
:1024B000F3FFC01BA8421CD2B4F846309BB2002BDD
:1024C000E2D1204629463A46FFF7BCFB08B120235B
:1024D0002366236E7BB900200EE002200CE0012071
:1024E0000AE0012008E0032006E0032004E00320C6
:1024F00002E0032000E00120012384F85D30002386
:1025000084F85C3000E0022002B0BDE8F08100BF3A
:10251000704700BF38B504464268A04B9A4204D9C0
:102520009F4840F6390101F00FF8A3683BB1B3F5BD
:10253000805F04D09A4840F63A0101F005F8E3685C
:10254000B3F5805F0BD053B1B3F5405F07D0B3F55F
:10255000005F04D0924840F63B0100F0F5FF23698C
:1025600053B1B3F5806F07D0B3F5C06F04D08C487A
:1025700040F63C0100F0E8FF636933F00C0200D143
:1025800023B9874840F63D0100F0DEFFA3696BB137
:10259000B3F5807F0AD0B3F5007F07D0B3F5407F55
:1025A00004D07F4840F63E0100F0CEFF236A3BB1E5
:1025B000B3F5006F04D07A4840F63F0100F0C4FF45
:1025C000E3693BB1B3F5004F04D075484FF40461A3
:1025D00000F0BAFFA26823691A4363691A43E369EA
:1025E000134321680A6822F4164222F00C021343B6
:1025F0000B6021684B6823F44052E36813434B603F
:10260000A269236A134321688A6822F43062134363
:102610008B602568634B9D4212D103F558431B6BB9
:1026200003F00303032B09D8DFE803F00204067E5E
:10263000012384E0042382E0082380E010237EE06D
:10264000594B9D4219D103F5E6331B6B03F440331C
:10265000B3F5803F0BD001D83BB10CE0B3F5003FA0
:1026600007D0B3F5403F61D005E0002367E00423C5
:1026700065E0082363E0102361E04C4B9D4219D1D3
:1026800003F5E4331B6B03F44023B3F5802F0BD029
:1026900001D83BB10CE0B3F5002F07D0B3F5402FC4
:1026A00046D005E000234AE0042348E0082346E042
:1026B000102344E03E4B9D4219D103F5E2331B6BDE
:1026C00003F44013B3F5801F0BD001D83BB10CE0ED
:1026D000B3F5001F07D0B3F5401F2BD005E0002352
:1026E0002DE004232BE0082329E0102327E0314BC1
:1026F0009D4221D103F5E0331B6B03F44003B3F596
:10270000800F0BD001D83BB10CE0B3F5000F07D020
:10271000B3F5400F12D005E0002310E004230EE0D3
:1027200008230CE010230AE0022308E0022306E05D
:10273000022304E0022302E0102300E00223E26906
:10274000B2F5004F56D1082B4AD8DFE803F0051048
:102750001B49354949494000FEF758FF63685A084C
:1027600002EB4000B0FBF3F39BB200203AE0FEF72F
:1027700063FF63685A0802EB4000B0FBF3F39BB2BF
:1027800000202FE061684A0802F5740303F5105336
:10279000B3FBF1F39BB2002024E000BF405489005A
:1027A000304E00080038014000440040004800401E
:1027B000004C004000500040FEF7C0FD63685A081E
:1027C00002EB4000B0FBF3F39BB200200AE062682A
:1027D000530803F58033B3FBF2F39BB2002001E012
:1027E0000120002323F00F02C3F3420313432268A6
:1027F000D36038BD082B3DD8DFE803F005101B3C43
:10280000273C3C3C3200FEF701FF636800EB5300BD
:10281000B0FBF3F080B2E860002038BDFEF70CFF9B
:10282000636800EB5300B0FBF3F080B2E860002077
:1028300038BD61684A0802F5F40303F59053B3FB11
:10284000F1F39BB2EB60002038BDFEF777FD6368C3
:1028500000EB5300B0FBF3F080B2E860002038BD1D
:102860006268530803F50043B3FBF2F39BB2EB60DD
:10287000002038BD012038BD10B50446436AFF2B47
:1028800004D96D4840F6A20100F05EFE636A13F0C1
:10289000010F10D0A36A3BB1B3F5003F04D06648E6
:1028A00040F6A70100F050FE21684B6823F4003287
:1028B000A36A13434B60636A13F0020F10D0E36AFC
:1028C0003BB1B3F5803F04D05B4840F6AE0100F069
:1028D0003BFE21684B6823F48032E36A13434B606C
:1028E000636A13F0040F10D0236B3BB1B3F5802F54
:1028F00004D0514840F6B50100F026FE21684B682F
:1029000023F48022236B13434B60636A13F0080F98
:1029100010D0636B3BB1B3F5004F04D0464840F68E
:10292000BC0100F011FE21684B6823F40042636B88
:1029300013434B60636A13F0100F10D0A36B3BB1CD
:10294000B3F5805F04D03C4840F6C30100F0FCFDC5
:1029500021688B6823F48052A36B13438B60636AF6
:1029600013F0200F10D0E36B3BB1B3F5005F04D040
:10297000314840F6CA0100F0E7FD21688B6823F476
:102980000052E36B13438B60636A13F0400F3CD03B
:1029900023682A4A93420CD0A2F57442934208D08D
:1029A00002F58062934204D0234840F6D10100F042
:1029B000CBFD236C3BB1B3F5801F04D01E4840F61D
:1029C000D20100F0C1FD21684B6823F48012236C12
:1029D00013434B60236CB3F5801F16D1636C6BB14E
:1029E000B3F5001F0AD0B3F5800F07D0B3F5C00FC1
:1029F00004D0114840F6D70100F0A6FD21684B68CD
:102A000023F4C002636C13434B60636A13F0800FBE
:102A100010D0A36C3BB1B3F5002F04D0064840F6AC
:102A2000DF0100F091FD21684B6823F40022A36CC4
:102A300013434B6010BD00BF304E0008003801400A
:102A40002DE9F04106460C4617469846069D1EE0C5
:102A5000B5F1FF3F1BD02DB1FDF71EFDC8EB000007
:102A6000A84214D93268136823F4D0731360326813
:102A7000936823F001039360202386F8693086F879
:102A80006A30002386F868300320BDE8F08133689F
:102A9000DB692340A34214BF00230123BB42D7D0EC
:102AA0000020BDE8F08100BF2DE9F04182B004466E
:102AB0001E4690F86930DBB2202B4DD10D46904672
:102AC00000294BD0002A4BD090F86830012B49D018
:102AD000012380F868300023C366212380F8693021
:102AE000FDF7DAFC0746A4F85080A4F852801EE0F7
:102AF000B4F85230013B9BB2A4F852300096204605
:102B0000802100223B46FFF79BFF68BBA368B3F51B
:102B1000805F08D1236933B9226835F8023BC3F3DB
:102B20000803138503E023682A781A850135B4F871
:102B300052309BB2002BDBD1009620464021002270
:102B40003B46FFF77DFF034680B9202284F86920C9
:102B5000002284F868200AE0022308E0012306E04E
:102B6000012304E0022302E0032300E003231846CC
:102B700002B0BDE8F08100BF30B583B00446002349
:102B8000C366FDF789FC054623681B6813F0080F30
:102B90000AD06FF07E43009320464FF400110022CC
:102BA0002B46FFF74DFFC0B923681B6813F0040FD5
:102BB0000AD06FF07E43009320464FF4800100223C
:102BC0002B46FFF73DFF50B9202384F8693084F885
:102BD0006A30002084F8680002E0032000E003204F
:102BE00003B030BD00285ED010B5044683698BB1B8
:102BF00003682E4A934226D0A2F57442934222D013
:102C000002F5806293421ED0294840F2311100F053
:102C10009BFC18E00368254A934214D0A2F5744245
:102C2000934210D002F5806293420CD002F580628C
:102C3000934208D002F58062934204D01C484FF4BE
:102C40009B7100F081FC94F8693013F0FF0F05D1FF
:102C5000002384F868302046FFF75AFC242384F8C8
:102C600069302268136823F0010313602046FFF7E0
:102C700051FC012819D0636A13B12046FFF7FCFD0F
:102C80002268536823F4904353602268936823F0CA
:102C90002A0393602268136843F0010313602046FF
:102CA000FFF76AFF10BD0120704710BD00380140DA
:102CB000304E0008FEE700BF08B50D4B1B6813B986
:102CC0000C4A0B4B1A600A4B1A68C31C23F003030F
:102CD000134409498B4206D901F05AFB0C230360C7
:102CE0004FF0FF3008BD02490B60104608BD00BF21
:102CF000B000002008070020009C00200123036092
:102D0000014B0B60704700BF0C0000200FB400B5F2
:102D100083B004AB53F8042B01930848802101F0E1
:102D200073FC011E03DD054800F04EF8014608461D
:102D300003B05DF804EB04B0704700BFB80000209A
:102D400010B5044601F014FC0146204600F03CF8A2
:102D50000248012100F038F810BD00BF8050000883
:102D60002DE9F04385B004460F46435C13BB0425B0
:102D700028462146ABBE04461FE03546102E28BF2C
:102D80001025002306E014F8011B04AA1A4402F8D7
:102D9000101C0133AB42F6D304AA1344002203F8FB
:102DA000102CE9464FF0040840464946ABBE804629
:102DB000761B00E00E46002EDFD1384605B0BDE898
:102DC000F08300BF704700BF08B5FFF7C9FF08BD1B
:102DD00008B500F097F8024B024A9A6008BD00BFA0
:102DE00000ED00E00000000808B500F0B9F808BDEB
:102DF000F8B504460D4617461E462648FFF786FFDF
:102E000025482168FFF782FF24486168FFF77EFFAD
:102E10002348A168FFF77AFF2248E168FFF776FFB1
:102E200021482169FFF772FF20486169FFF76EFFB3
:102E30001F48A169FFF76AFF1E48E169FFF766FFB7
:102E40001D48FFF763FF1D482946FFF75FFF1C4C35
:102E5000E16A1C48FFF75AFF216B1B48FFF756FF3A
:102E6000E16B1A48FFF752FF15F0800F03D01848A6
:102E70003946FFF74BFF15F4004F03D01548314694
:102E8000FFF744FF1448FFF741FF14480699FFF786
:102E90003DFFF8BD8C4E00089C4E0008AC4E00086B
:102EA000BC4E0008CC4E0008DC4E0008EC4E00087A
:102EB000FC4E00080C4F00081C4F0008284F00086B
:102EC00000ED00E0384F0008484F0008584F000858
:102ED000684F0008784F0008884F0008904F00089E
:102EE00083691A888A4207D10268033A012A05D801
:102EF0000233836101207047002070470020704733
:102F0000FEE70000124B1A6842F001021A6059688D
:102F1000104A0A405A601A6822F0847222F4803201
:102F20001A601A6822F480221A605A6822F4FE029B
:102F30005A60DA6A22F00F02DA62196B064A0A4016
:102F40001A6300229A604FF00062044B9A60704747
:102F5000001002400CC07FF8CCFC00FF00ED00E048
:102F60001D4B5B6803F00C03042B06D0082B08D024
:102F70001BBB1A4A1A4B1A6022E0184A184B1A60F7
:102F80001EE0154A53685268C3F38343023312F4B8
:102F9000803F05D1134A02FB03F3114A13600FE08F
:102FA0000D4AD26A02F00F0201320C49B1FBF2F273
:102FB00003FB02F30A4A136002E0084A084B1A6056
:102FC000054B5B68C3F30313074AD15C044A1368DB
:102FD000CB401360704700BF0010024000127A001F
:102FE0001400002000093D00D44F000808B5034834
:102FF0004FF480510022FDF73FFC08BD000400485B
:1030000008B503484FF480510122FDF735FC08BD97
:103010000004004800B583B006480DF10701012205
:103020004FF0FF33FFF7AEF99DF8070003B05DF8EE
:1030300004FB00BF6001002000B583B002A901F8C5
:10304000010D044801224FF0FF33FEF747FF03B0A4
:103050005DF804FB6001002070B58AB0002405947F
:103060000694079408940994294B5A6942F4001273
:103070005A615A6902F400120092009A5A6942F4A5
:1030800000225A615A6902F400220192019A5A6997
:1030900042F480025A615A6902F480020292029A52
:1030A0005A6942F400325A615A6902F400320392BA
:1030B000039A5A6942F480225A615B6903F48023BF
:1030C0000493049B134D28464FF608712246FDF7E2
:1030D000D3FB37230593104B06930794284605A985
:1030E000FDF76AFA4FF608730593012606960794D2
:1030F0000894284605A9FDF75FFA059606940794FB
:103100004FF0904005A9FDF757FA0AB070BD00BF17
:1031100000100240001000480000121038B50D4C9D
:103120000D4B23600D4B63600025A5600123E36018
:1031300025616561A561E56125622046FDF7C4FB57
:1031400020462946FDF772FC20462946FDF7B6FCCD
:1031500038BD00BFC4010020005400400E0900200B
:1031600008B50E480E4B03604FF482734360002392
:1031700083604FF44072C260036143614FF4007298
:1031800082610822C2610362436283620721C162D5
:1031900003634263FEF798FD08BD00BFBC02002038
:1031A0000030014008B50E480E4B03604FF48273A7
:1031B0004360002383604FF4E062C26003614361B7
:1031C0004FF4007282610822C2610362436283622B
:1031D0000721C16203634263FEF776FD08BD00BFAD
:1031E000600100200038004008B50748074B036025
:1031F00008234360022282600023C360026183616E
:103200000362FDF79FFC08BD5C030020005C0040EA
:1032100010B586B0164C174B23604FF4E133636052
:103220000023A360E36023610C226261A361E36178
:1032300003F1804303F504339A6942F480429A61B2
:103240009B6903F480430093009B4FF4C063019398
:103250000223029303230493072305934FF0904026
:1032600001A9FDF7A9F92046FFF7BCFC06B010BD87
:103270004C0200200038014070B59EB00024169426
:1032800017941A940F9410941194129413946846FE
:1032900021463C2201F08DF8032314934FF4A02320
:1032A0001593012518951023199302261B964FF4A8
:1032B00080331C934FF480131D9314A8FDF7A6FCD4
:1032C0000F230F93109611944FF48063129313946D
:1032D0000FA82946FEF76AF8054B009307944FF4B0
:1032E00080030E936846FEF7BDF91EB070BD00BFA7
:1032F0002000020030B58DB0804B18680B90FFF7AE
:1033000061FDFDF7ABF8FFF7B7FFFFF7A5FEFFF78D
:1033100005FFFFF725FFFFF767FFFFF743FFFFF705
:1033200077FF7748774900F007FF7748774900F043
:1033300015FF0BA8014600F05FFF002305930793DC
:1033400008930993ADF828308DF82A3008238DF8BA
:103350001530DC238DF81630AB238DF81730CD23D4
:103360008DF81830EF238DF81930C0238DF81A30FE
:10337000A8218DF81B108DF81D30FF228DF81E201E
:103380008DF81F208DF820208DF822308DF8231025
:1033900002238DF8243001238DF8253005A800F094
:1033A000A3FF05A800F0CAFF5948FFF7C9FC594D13
:1033B0002846594940226423FFF776FB9DF81A20DE
:1033C0009DF81B309DF81C009DF81D10534C00907B
:1033D00001912046524901F09FF8204601F0C8F8BB
:1033E00082B2284621466423FFF75EFB00200121BC
:1033F00041F28832034600F0D5FBC2B2002A5FD109
:10340000002000F061FC012856D107E045484FF448
:103410000071FDF749FA6420FDF744F840F20340DB
:1034200000F0A8F91428F1D040F2034000F0A2F90E
:10343000172814BF00220122AAB30020042104AAE5
:1034400000F0DCFD002005210DF10E0200F0D6FD9C
:10345000354C002021463C2200F050FD2046FFF76D
:103460006FFCFDF719F802462C4C20462F4901F05D
:1034700053F8204601F07CF882B20020214600F08B
:1034800099FC024610F0FF0F03D02948FFF758FCC3
:103490001EE0224C20462749D2B201F03DF82046DA
:1034A000FFF74EFC14E01D4C2046234901F034F890
:1034B0002046FFF745FC0BE02048FFF741FC07E002
:1034C000164C20461B4901F027F82046FFF738FC30
:1034D000002000F02BFC002000F02AFB12481849C5
:1034E000032201F04DF820B90E484FF48061FDF73A
:1034F000DBF90D48134901F033F877E7EC4F00088A
:10350000ED2F0008013000081530000839300008A0
:10351000F04F00084C02002000500008100200206C
:103520001C50000800100048200300203050000804
:103530005850000884500008B0500008D4500008CB
:10354000E4500008AC500008704700BF00B583B0DD
:103550000C4B9A6942F001029A619A6902F00102E9
:103560000092009ADA6942F08052DA61DB6903F076
:1035700080530193019B0720FCF7A8FF03B05DF87F
:1035800004FB00BF0010024010B588B00023039375
:1035900004930593069307930268134B9A4220D134
:1035A000124C636943F480236361636903F48023ED
:1035B0000193019BC02303931223049301230593DA
:1035C0000323069304230793094803A9FCF7F4FF98
:1035D000E36943F40013E361E36903F40013029326
:1035E000029B08B010BD00BF005400400010024014
:1035F0000004004800B58BB00023059306930793A1
:10360000089309930368254A934220D1244B9A6971
:1036100042F480529A619A6902F480520192019AAE
:103620005A6942F400325A615B6903F40033029331
:10363000029BE023059302230693032308930523AB
:1036400009934FF0904005A9FCF7B6FF22E0154A18
:1036500093421FD1124BDA6942F48042DA61DA698F
:1036600002F480420392039A5A6942F480225A611A
:103670005B6903F480230493049B4FF47043059328
:10368000022306930323089305230993064805A9FB
:10369000FCF792FF0BB05DF804FB00BF0030014067
:1036A00000100240003800400004004810B588B007
:1036B0000023039304930593069307930268134B27
:1036C0009A4220D1124C636943F400336361636909
:1036D00003F400330193019B4FF4C053039302237F
:1036E0000493032306930E2307934FF0904003A9FE
:1036F000FCF762FFE36943F40003E361E36903F469
:1037000000030293029B08B010BD00BF005C0040A4
:1037100000100240704700BFFEE700BFFEE700BF99
:10372000FEE700BFFEE700BF704700BF704700BF65
:10373000704700BF08B5FCF7A3FE08BD70B505468D
:103740000E460B4CA368984723699847E369F0201D
:103750009847E369C5F307209847E369E8B29847BB
:10376000E3693046984763699847E368984770BDB6
:103770001C00002038B505460B4CA3689847236908
:103780009847E3690F209847E369C5F307209847F6
:10379000E369E8B29847A369984705466369984783
:1037A000E3689847284638BD1C0000202DE9F04109
:1037B000064688461746134CA368984723699847DE
:1037C000002416E00F4D2B699847EB69F0209847CD
:1037D000EB69A019C0F307209847EB693019C0B214
:1037E0009847EB6918F8040098476B6998470134CB
:1037F000A4B2BC42E6D3034C63699847E368984798
:10380000BDE8F0811C0000202DE9F0410646884605
:103810001746134CA368984723699847002416E07D
:103820000F4D2B699847EB690F209847EB69A0195A
:10383000C0F307209847EB693019C0B29847AB69CD
:10384000984708F804006B6998470134A4B2BC4259
:10385000E6D3034C63699847E3689847BDE8F08175
:103860001C0000202DE9F0418046002608F10405E7
:103870002D0205F120073846FFF77CFF000200F417
:103880007F4421352846FFF775FF204484B254B1A8
:103890003846FFF76FFF000200F47F462846FFF727
:1038A00069FF304486B2A642E0D13046BDE8F081DF
:1038B0002DE9F0418046002608F104052D0205F1AE
:1038C00026073846FFF756FF000200F47F442735ED
:1038D0002846FFF74FFF204484B254B13846FFF723
:1038E00049FF000200F47F462846FFF743FF3044BB
:1038F00086B2A642E0D13046BDE8F081F8B5074671
:103900004FF4C04600250EE01A20FFF733FF640095
:103910000323A34018402041012383409BB206EBC0
:1039200083260135EDB26CB2BC42EDDB3046F8BD0A
:10393000F8B507464FF4804600250EE01B20FFF740
:1039400019FF64000323A340184020410123834052
:103950009BB206EB83260135EDB26CB2BC42EDDBC7
:103960003046F8BD2DE9F04F85B0814603911546EC
:10397000041D240204F1240300931846FFF7FAFE05
:10398000064604F1250301931846FFF7F3FE00EB0A
:10399000062086B21B20FFF7EDFE4FEA490A4FF0E2
:1039A000030808FA0AF800EA080040FA0AF00127BA
:1039B00007FA00F4A402013C34404846FFF7B8FF80
:1039C000204483B2029304EB050B1B20FFF7D2FEC9
:1039D00008EA000040FA0AF08740BFB2BBEB872F2D
:1039E00020DD1B20FFF7C6FE08EA000040FA0AF0BF
:1039F000012383409BB2C4EB8324A4B20298039FAB
:103A000039462246FFF7D2FE3B4623441F462C1B75
:103A1000A4B24846FFF78CFF80B239462246FFF732
:103A2000C5FE04E0029803992A46FFF7BFFE35441D
:103A3000ADB20098290AFFF781FE0198E9B2FFF7BD
:103A40007DFE05B0BDE8F08F2DE9F04F85B08146D1
:103A500003911546041D240204F12803009318461F
:103A6000FFF788FE064604F1290301931846FFF785
:103A700081FE00EB062086B21A20FFF77BFE4FEA9C
:103A8000490A4FF0030808FA0AF800EA080040FA69
:103A90000AF0012707FA00F4A4B2A402013C344062
:103AA0004846FFF72BFF204483B2029304EB050B3B
:103AB0001A20FFF75FFE08EA000040FA0AF087408C
:103AC000BFB2BBEB872F20DD1A20FFF753FE08EAB9
:103AD000000040FA0AF0012383409BB2C4EB832428
:103AE000A4B20298039F39462246FFF78DFE3B465B
:103AF00023441F462C1BA4B24846FFF7FFFE80B2AA
:103B000039462246FFF780FE04E0029803992A46D0
:103B1000FFF77AFE3544ADB20098290AFFF70EFE92
:103B20000198E9B2FFF70AFE05B0BDE8F08F00BFCB
:103B300004282AD870B50646041D2402651C2846B0
:103B40001021FFF7FBFD2846FFF714FE0028FAD1ED
:103B5000A01CFF21FFF7F2FD0123B340DB439BB222
:103B60000C490A881A400A800B490A8813400B80C6
:103B700000230A4A22F81630094A9355E01CFFF741
:103B8000F9FD0028FAD1012002E0FF2040B2704781
:103B900040B270BD380100203A01002040010020F1
:103BA0003C0100202DE9F04182B00546042873D87D
:103BB0000E4690461F46012904D000296ED00529E3
:103BC00009D96BE00F2001A90422FFF71DFE019B1C
:103BD0000BB9FD2069E017F0040F61D177B1012E18
:103BE00002D0022E04D009E017F0210F06D159E0CF
:103BF00017F0200F02D017F0800F55D02846FFF79E
:103C000097FF2C1D240227F00F0120463143FFF7B8
:103C100095FDB8F1000F0ED1264AB2F8008008F1E8
:103C200001039BB213804FF6F072934203D14FF41D
:103C30004042204B1A80201D4FEA1821FFF77EFDDD
:103C4000601D5FFA88F1FFF779FD661C304601219F
:103C5000FFF774FD3046FFF78DFD0028FAD10123F0
:103C6000AB40DB439BB214490A881A4007F00107B6
:103C7000AF4017430F8011490A8813400B8000237F
:103C80000F4A22F815300F4A5355E01CFFF772FD1A
:103C90000028FAD0E8B208E0FF2006E0FB2004E0AC
:103CA000FA2002E0FA2000E0FA2040B202B0BDE8BB
:103CB000F08100BF18000020380100203A010020E8
:103CC000400100203C010020042827D870B505469B
:103CD000041D24022046FFF74DFD00F00F000128CF
:103CE0001FD1E61C3046FFF745FD13281BD10134D8
:103CF00020460221FFF722FD2046FFF73BFD00286A
:103D0000FAD104E02846FFF713FFFC200CE0304610
:103D1000FFF730FD1428F5D1012005E0FF2040B267
:103D20007047FB2000E0FD2040B270BD042834D86D
:103D300070B50646041D24022046FFF71BFD00F067
:103D40000F0001282CD1651C28460821FFF7F6FC3E
:103D50002846FFF70FFD0028FAD10123B34013498D
:103D60000A8822EA03030B80114B1B88334113F0AE
:103D7000010F0BD016E0A01CFFF7FCFC10F0080FA1
:103D800004D03046FFF7D4FEF3200CE0E01CFFF730
:103D9000F1FC0028EFD1012005E0FF2040B2704780
:103DA000FB2000E0002040B270BD00BF3A010020BF
:103DB00038010020042800F288802DE9F0471446DD
:103DC0008A460646804600F104094FEA092948461A
:103DD000FFF7D0FC00F00F00012879D1002C7BD038
:103DE00009F103073846FFF7C5FC172801D01C2846
:103DF00076D1404B1B88334113F0010F1ED009F1DF
:103E000002052846FFF7B6FC10F0100F0CD028462C
:103E10001021FFF793FC012303FA06F235490B88C2
:103E200023EA02030B8009E010F0080F5CD0304653
:103E3000FFF77EFE6FF00C00BDE8F0871B20FFF758
:103E400099FC720003239340184040FA02F34FF4A8
:103E500080659D4005F47C45AC4200D8254630463F
:103E6000FFF700FD04463846FFF784FC172808D00A
:103E70001C2806D03046FFF75BFE6FF00600BDE859
:103E8000F0871D4B1B8843FA08F313F0010F01D094
:103E9000A5422CD8A542E2D8304651462A46FFF723
:103EA00061FD09F1010948462021FFF747FC48461A
:103EB000FFF760FC0028FAD10123B3400D490A88BE
:103EC00013430B802846BDE8F0874FF0FF30704762
:103ED0006FF00400BDE8F0876FF00D00BDE8F087DB
:103EE0006FF00600BDE8F0870020BDE8F0870020F5
:103EF000BDE8F0873A0100203801002004286ED880
:103F00002DE9F04F83B01446019105468046061D09
:103F100036023046FFF72EFC00F00F00012861D179
:103F2000002C62D01A20FFF725FC4FEA450A4FF01B
:103F3000030909FA0AF900EA090040FA0AF04FF405
:103F4000806B0BFA00FB0BF47C4BA34500D3A3461C
:103F50002846FFF7ADFC0446F01CFFF70BFC1728C2
:103F60001FD01C2817D134BB2846FFF77BFC07461F
:103F70001B20FFF7FFFB09EA000040FA0AF00123CB
:103F800083409BB2B7EB832F0BD12846FFF7D0FDC0
:103F90006FF006002DE02846FFF7CAFD6FF006001F
:103FA00027E0154B1B8843FA08F313F0010F00D0EC
:103FB000F4B1002CCCD0A34500D9A34628460199E2
:103FC0005A46FFF741FD013630464021FFF7B6FB68
:103FD0003046FFF7CFFB0028FAD1584609E04FF0F2
:103FE000FF3070476FF0040003E06FF00D0000E059
:103FF000002003B0BDE8F08F3801002004287ED8EF
:1040000070B5154604460A297CD8DFE801F0060F92
:10401000171F2F38484D525A6D0004300002FFF729
:10402000A9FB20F00F00287001206EE0000200F2D2
:104030001640FFF79FFB2870012066E0000200F2A7
:104040001540FFF797FB287001205EE00430040262
:1040500004F11200FFF78EFB064604F11300FFF790
:1040600089FB00EB0620288001204EE0000200F2D0
:104070000C4011460422FFF7C7FB012045E0043045
:10408000040204F11000FFF775FB064604F111006D
:10409000FFF770FB00EB06202880012035E0FFF7DA
:1040A000E1FB2880012030E0FFF702FC288001209E
:1040B0002BE0000200F20340FFF75CFB28700120B8
:1040C00023E004300002FFF755FB10F0010F05D08C
:1040D0002046FFF7EDFB2880012016E00C4B33F85B
:1040E00014302B80012010E004300002FFF742FB67
:1040F000012809D0074B1B5D2B70012005E0FF2034
:1041000040B27047FE2000E0FB2040B270BD00BF0F
:10411000400100203C010020704700BF704700BFF5
:10412000704700BF704700BF00787047017070474C
:1041300000207047704700BF00B129B9044B054A01
:104140001A61054A5A617047014B186159617047FD
:104150001C0000202141000825410008094B1B8854
:1041600003F400739BB2002BF8D000B129B9054BC2
:10417000054A9A61054ADA617047024B9861D96134
:10418000704700BF1C000020314100083541000885
:1041900000B587B0092001A90622FFF735FB0120F1
:1041A00005A90422FFF730FB052004A90422FFF72C
:1041B0002BFB0F2003A90422FFF726FB0020802100
:1041C000FFF7BCFA0020FFF7D5FA092001A9062263
:1041D000FFF7ECFA012005A90422FFF7E7FA052012
:1041E00004A90422FFF7E2FA0F2003A90422FFF733
:1041F000DDFA07B05DF804FBF8B504460D46FFF79D
:10420000C7FF54B932E059B2615C0A44D2B251B22C
:10421000082963DC0133DBB201E00022134659B206
:104220000329F0DD00271EE00133DBB200E00023AC
:104230007AB2A25C5EB242FA06F1012901D0002AEC
:10424000F2D11B20FFF796FA7BB25B000321994065
:104250009E4020EA010040EA06011B20C9B2FFF798
:104260006DFA0137FFB27BB2032BE0DD5DB90020B0
:1042700037E059B2695C0A44D2B251B208292FDC46
:104280000133DBB201E00022134659B20329F0DD0D
:1042900000261EE00133DBB200E0002371B26A5C4D
:1042A0005FB23A41012A02D0625C002AF2D11A20A0
:1042B000FFF760FA73B25B00032199409F4020EA48
:1042C000010040EA07011A20C9B2FFF737FA0136A8
:1042D000F6B273B2032BE0DD002002E0FF2000E025
:1042E000FF2040B2F8BD00BF10B5044609202146AA
:1042F0000622FFF75BFA012004F10E010422FFF70A
:1043000055FA052004F10A010422FFF74FFA0F20A5
:10431000A11D0422FFF74AFAA27C064B1A70E27C28
:104320005A70227D9A70627DDA70A27D024B1A70FB
:1043300010BD00BF4C0100204801002010B504460C
:10434000092021460622FFF75FFA012004F10E0141
:104350000422FFF759FA052004F10A010422FFF7AD
:1043600053FA0F20A11D0422FFF74EFA064B1A78CC
:10437000A2745A78E2749A782275DB786375034BDD
:104380001B78A37510BD00BF4C0100204801002020
:10439000014B1868704700BFA400002010B5431EF1
:1043A0000A44914204D011F8014B03F8014FF8E799
:1043B00010BD02440346934202D003F8011BFAE702
:1043C0007047000030B500293DD051F8042C0B1F78
:1043D0001D49002AB8BF9B180A680C4612B95A60DA
:1043E0000B6030BD93420DD219685818904201BF3E
:1043F0005A5852181A6042685A60236030BD994278
:1044000003D80A4651680029F9D1146815199D424C
:104410000AD11B682344D0188842136013D108685E
:10442000034413604B680DE002D90C23036030BDD8
:104430001C681819884204BF08684968596004BF9D
:1044400000191860536030BD5401002070B5CC1CB9
:1044500024F0030408340C2C38BF0C24002C06462E
:1044600003DA0C233360002070BD8C42F9D3204A5C
:10447000136810461946A1B10A68121B0ED40B2A04
:1044800003D90A608B188C501FE08B420DBF5A680D
:104490004A685A60026018BF0B4616E00B4649682E
:1044A000E9E7144D2B681BB9304600F025F8286069
:1044B0003046214600F020F8421C0346D1D0C51CEE
:1044C00025F0030585420AD11C6003F10B001A1D7B
:1044D00020F00700821A0AD05142995070BD304630
:1044E000E91A00F009F80130BBD02B46ECE770BDAB
:1044F000540100205001002038B5064C0023054629
:1045000008462360FEF7D8FB431C02D1236803B1A1
:104510002B6038BD5C0100200EB400B59CB04FF498
:104520000271ADF814106FF00041049107914FF63D
:10453000FF711DABADF81610084953F8042B02901B
:1045400006900868019302A900F0C8F8029B0022B7
:104550001A701CB05DF804EB03B07047A400002093
:10456000034611F8012B03F8012B002AF9D17047FB
:10457000034613F8012B002AFBD1181A01387047A3
:1045800070B5AAB1451E01396B7811F8014FA342ED
:1045900005F1010606D16FF00104641B1444E042EA
:1045A00002D11C46181B70BD3546002BECD1F8E734
:1045B000104670BD30B5141E9BB0054604DA8B233F
:1045C00003604FF0FF301CE04FF40272ADF80C2096
:1045D00014BF04F1FF322246029205924FF6FF7299
:1045E00000910491ADF80E2069461A461E9B00F01A
:1045F00075F8431CBCBF8B232B6014B1009B0022B9
:104600001A701BB030BD000073B50093054B064611
:104610000D461446186831462A462346FFF7CAFF5E
:1046200002B070BDA40000202DE9F0478E68B342AF
:1046300082460C469046994640D38A8912F4906F80
:104640003AD0256809696F1A6569022305EB4505AB
:1046500095FBF3F57B1C4B449D4238BF1D4653052B
:104660000FD52946FFF7F2FE064698B121693A4672
:10467000FFF794FEA38923F4906343F08003A381A2
:1046800013E02A4600F0DCFA064670B9504621696C
:10469000FFF798FE0C23CAF80030A38943F04003CB
:1046A000A3814FF0FF30BDE8F087266165613E448D
:1046B000ED1B2660A5604E46B14500D24E463246FF
:1046C0002068414600F0A1FAA3689B1BA360236801
:1046D0001E4426600020BDE8F08700002DE9F0436D
:1046E0009DB0064603938B891C060D4690460CD55B
:1046F0000B6953B94021FFF7A9FE2860286110B962
:104700000C233360CCE040236B610023099320230A
:104710008DF8293030238DF82A3043461C4613F893
:10472000012B1AB9B4EB08090FD002E0252AF5D104
:10473000F8E73046294642464B46FFF775FF013001
:1047400000F0A980099B4B4409932378002B00F0CB
:10475000A28000234FF0FF32049307930592069343
:104760008DF853301A9304F101084446DFF848915C
:1047700021784846052200F039FA08F10108049B27
:1047800030B1C9EB00000122824013430493ECE7EF
:10479000D80644BF20228DF85320190744BF2B228E
:1047A0008DF8532022782A2A02D0079923460EE05A
:1047B000039A111D12680391002ABBBF524243F0B5
:1047C000020307920792B8BF049301340AE01C4623
:1047D00001332278303A092A03D80A2000FB01214C
:1047E000F5E7079123782E2B1AD163782A2B0AD16B
:1047F000039B1A1D1B680392002BB8BF4FF0FF33B9
:10480000023405930CE0611C00220C460131237830
:10481000303B092B03D80A2000FB0232F5E7059252
:10482000DFF8988021784046032200F0DFF938B1A4
:10483000049AC8EB000040238340134304930134DF
:1048400021781A488DF82810062204F1010800F09A
:10485000CDF988B1164B33B9039B073323F0070317
:104860000833039313E003AB0093304604A92A46B0
:10487000104BAFF3008007E003AB0093304604A970
:104880002A460C4B00F092F8421C074603D0099BC5
:104890003B44099341E7AB895B0601D4099801E0E9
:1048A0004FF0FF301DB0BDE8F08300BF5651000847
:1048B00000000000294600084C5100085251000831
:1048C0002DE9F84391461F468A680B69DDF8208080
:1048D0009342B8BF1346C9F8003091F8432006460A
:1048E0000C4612B10133C9F800302368990642BF63
:1048F000D9F800300233C9F80030256815F00605F4
:104900001CD094F843302268003318BF012392066C
:104910001FD5E1185A1C302081F84300224494F836
:10492000451082F84310023313E03046394604F153
:1049300019020123C047013007D00135E368D9F8D7
:1049400000209B1A9D42F0DBDBE74FF0FF30BDE813
:10495000F8833046394604F14302C0470130F4D0B1
:104960002268D9F80050E36802F00602042A08BF62
:104970005D1B2269A3680CBF25EAE57500259342FB
:10498000C4BF9B1AED184FF00009A9450ADA30465A
:10499000394604F11A020123C0470130D5D009F18C
:1049A0000109F2E70020BDE8F88300002DE9FF418E
:1049B0000C461746227E6E2A984606460A9B01F14F
:1049C000430100F0AF8012D8632A23D00AD8002A0E
:1049D00000F0BC80582A40F0CB8084F84520DFF8F6
:1049E00004E257E0642A1ED0692A1CD0C0E0732A72
:1049F00000F0B08009D86F2A2ED0702A40F0B8801D
:104A0000226842F0200222603FE0752A24D0782AF2
:104A10003BD0ADE01A68111D1960136884F842306C
:104A200004F14205A8E020681A6810F0800F02D057
:104A3000101D186008E010F0400F02F1040018602B
:104A400002D0B2F9003000E01368002B3EDA2D22CC
:104A50005B4284F8432039E020681A6810F0800F28
:104A600002D0101D186007E010F0400F02F10400A2
:104A7000186001D0138800E01368227EDFF864E13B
:104A80006F2A0CBF08220A221CE07822DFF858E1C6
:104A900084F845202268186812F0800F00F10405A0
:104AA0001D6003D1550601D5038800E00368D007D7
:104AB00044BF42F0200222601BB9226822F020028B
:104AC00022601022002084F8430002E0DFF814E1A5
:104AD0000A226568A560002DA2BF206820F00400AE
:104AE000206003B965B10D46B3FBF2F002FB103351
:104AF0001EF8033005F8013D03460028F4D100E01C
:104B00000D46082A0BD12368DA0708D523696268A5
:104B10009A42DEBF302305F8013C05F1FF35491B01
:104B200021612EE025681A68606915F0800F03D0B6
:104B3000151D1D60136808E015F0400F02F1040513
:104B40001D60136801D0188000E018600023236105
:104B50000D4616E01A68111D19601568626828462E
:104B6000002100F043F808B1401B6060636804E076
:104B700004F1420584F8422001232361002384F8D4
:104B80004330CDF800803046214603AA3B46FFF76C
:104B900097FE013002D14FF0FF301FE0304639461A
:104BA0002A462369C0470130F5D023689B0705D406
:104BB000E068039B9842B8BF18460FE00025E36801
:104BC000039A9B1A9D42F3DA3046394604F11902E2
:104BD0000123C0470130DED00135F0E704B0BDE865
:104BE000F08100BF5D5100086E51000810B5C9B2D8
:104BF00002449042034606D01C788C4200F101002A
:104C0000F7D1184610BD002010BD814210B501EB50
:104C1000020301D3421E0BE09842FBD28118D21A44
:104C2000D34204D013F8014D01F8014DF8E710BD4F
:104C3000994204D011F8014B02F8014FF8E710BD7A
:104C4000F8B5074615460E4621B91146BDE8F840AD
:104C5000FFF7FCBB1AB9FFF7B5FB2846F8BD00F01B
:104C600015F8A8420ED238462946FFF7EFFB044656
:104C700050B131462A46FFF791FB38463146FFF7DF
:104C8000A1FB01E03046F8BD2046F8BD51F8040C08
:104C90000028BEBF091851F8043CC01804387047FA
:104CA0002E2E2F73797374656D2F7372632F737447
:104CB0006D3332663378782F73746D3332663378A0
:104CC000785F68616C5F636F727465782E63000053
:104CD0002E2E2F73797374656D2F7372632F737417
:104CE0006D3332663378782F73746D333266337870
:104CF000785F68616C5F6770696F2E630000000009
:104D00002E2E2F73797374656D2F7372632F7374E6
:104D10006D3332663378782F73746D33326633783F
:104D2000785F68616C5F6932632E63002E2E2F738B
:104D3000797374656D2F7372632F73746D3332667C
:104D40003378782F73746D3332663378785F6861A7
:104D50006C5F6932635F65782E6300002E2E2F73BF
:104D6000797374656D2F7372632F73746D3332664C
:104D70003378782F73746D3332663378785F686177
:104D80006C5F7063642E63002E2E2F7379737465CD
:104D90006D2F7372632F73746D3332663378782F8F
:104DA00073746D3332663378785F68616C5F7263F9
:104DB000632E63000102030405060708090A0B0CB1
:104DC0000D0E0F1002030405060708090A0B0C0D4F
:104DD0000E0F10102E2E2F73797374656D2F737252
:104DE000632F73746D3332663378782F73746D3339
:104DF00032663378785F68616C5F7263635F657891
:104E00002E6300002E2E2F73797374656D2F7372CD
:104E1000632F73746D3332663378782F73746D3308
:104E200032663378785F68616C5F7370692E6300F7
:104E30002E2E2F73797374656D2F7372632F7374B5
:104E40006D3332663378782F73746D33326633780E
:104E5000785F68616C5F756172742E63000000009A
:104E60006D61696E28617267633D25642C206172F3
:104E700067763D5B000000002C2000002225732295
:104E8000000000005D293B0A0000000053746163CC
:104E90006B206672616D653A0A0000002052302076
:104EA0003D2020253038580A0000000020523120D3
:104EB0003D2020253038580A0000000020523220C2
:104EC0003D2020253038580A0000000020523320B1
:104ED0003D2020253038580A000000002052313291
:104EE000203D20253038580A00000000204C522078
:104EF0003D2020253038580A000000002050432073
:104F00003D2020253038580A000000002050535220
:104F1000203D20253038580A000000004653522F0B
:104F20004641523A0A0000002043465352203D2099
:104F300020253038580A00002048465352203D2092
:104F400020253038580A00002044465352203D2086
:104F500020253038580A00002041465352203D2079
:104F600020253038580A0000204D4D464152203D42
:104F700020253038580A00002042464152203D206A
:104F800020253038580A00004D6973630A0000007C
:104F9000204C522F4558435F52455455524E3D20A8
:104FA000253038580A0000005B486172644661751C
:104FB0006C745D0A000000005B4275734661756C9D
:104FC000745D0A005B55736167654661756C745D5D
:104FD0000A000000000000000000000001020304BD
:104FE0000607080900000000010203040202020291
:104FF0005374617274696E672064656D6F0A000096
:105000007374617274696E672066726F6D20737459
:105010006D333220756172740A0D000069703A2098
:1050200025642E25642E25642E25640D0A000000BB
:1050300074696D652073696E636520626F6F74209B
:105040006973203A20256C75206D730A776166615B
:10505000203A22280A00000053656E742061206DFA
:105060006573736167652E204C6574277320636CCC
:105070006F73652074686520736F636B6574210DB1
:105080000A000000536F6D657468696E672077656C
:105090006E742077726F6E673B2072657475726EE6
:1050A0002076616C75653A2025640D0A00000000C9
:1050B000536F6D657468696E672077656E742077CD
:1050C000726F6E673B205354415455533A20256408
:1050D0000D0A00004C495354454E204572726F72C0
:1050E000210D0A004C443500430000000000000080
:1050F00000000000000000000000000000000000B0
:10510000000000000000000000000000000000009F
:10511000000000000000000000000000000000008F
:10512000000000000000000000000000000000007F
:10513000000000000000000000000000000000006F
:10514000000000000000000000000000232D302BB4
:105150002000686C4C006566674546470030313278
:1051600033343536373839414243444546003031CF
:10517000323334353637383961626364656600002E
:105180001000000000000000017A5200027C0E01B5
:105190001B0C0D00100000001800000000000000B3
:0851A0001400000000000000F3
:1051A800785634121000000001FFFFFFB400002001
:1051B8000000000000127A0000C0FFFF000257350F
:1051C80031303000194100081D4100082141000814
:1051D80025410008294100082D4100080000000071
:1051E8000000000000000000EC5000080C5100080E
:1051F8002C51000800000000000000000000000022
:1052080000000000E8500008000000000000000056
:105218000000000000000000000000000000000086
:105228000000000000000000000000000000000076
:105238000000000000000000000000000000000066
:0C52480000000000440000203254769862
:040000050800018965
:00000001FF
